{
  "contractName": "Game",
  "abi": [
    {
      "inputs": [],
      "stateMutability": "payable",
      "type": "constructor",
      "payable": true
    },
    {
      "anonymous": false,
      "inputs": [
        {
          "indexed": false,
          "internalType": "uint256",
          "name": "_balance",
          "type": "uint256"
        }
      ],
      "name": "BalanceRedeemedOfplayer1",
      "type": "event"
    },
    {
      "anonymous": false,
      "inputs": [
        {
          "indexed": false,
          "internalType": "uint256",
          "name": "_balance",
          "type": "uint256"
        }
      ],
      "name": "BalanceRedeemedOfplayer2",
      "type": "event"
    },
    {
      "anonymous": false,
      "inputs": [],
      "name": "GameStarted",
      "type": "event"
    },
    {
      "anonymous": false,
      "inputs": [],
      "name": "Money_Transfered_to_contract",
      "type": "event"
    },
    {
      "anonymous": false,
      "inputs": [
        {
          "indexed": false,
          "internalType": "address payable",
          "name": "player",
          "type": "address"
        },
        {
          "indexed": false,
          "internalType": "uint256",
          "name": "_balance",
          "type": "uint256"
        }
      ],
      "name": "Player1Joined",
      "type": "event"
    },
    {
      "anonymous": false,
      "inputs": [
        {
          "indexed": false,
          "internalType": "address payable",
          "name": "player",
          "type": "address"
        },
        {
          "indexed": false,
          "internalType": "uint256",
          "name": "_balance",
          "type": "uint256"
        }
      ],
      "name": "Player2Joined",
      "type": "event"
    },
    {
      "inputs": [
        {
          "internalType": "address",
          "name": "",
          "type": "address"
        }
      ],
      "name": "approvers",
      "outputs": [
        {
          "internalType": "bool",
          "name": "",
          "type": "bool"
        }
      ],
      "stateMutability": "view",
      "type": "function",
      "constant": true
    },
    {
      "inputs": [],
      "name": "checkbalanceOfplayer1",
      "outputs": [
        {
          "internalType": "uint256",
          "name": "",
          "type": "uint256"
        }
      ],
      "stateMutability": "view",
      "type": "function",
      "constant": true
    },
    {
      "inputs": [],
      "name": "checkbalanceOfplayer2",
      "outputs": [
        {
          "internalType": "uint256",
          "name": "",
          "type": "uint256"
        }
      ],
      "stateMutability": "view",
      "type": "function",
      "constant": true
    },
    {
      "inputs": [],
      "name": "contract_address",
      "outputs": [
        {
          "internalType": "address",
          "name": "",
          "type": "address"
        }
      ],
      "stateMutability": "view",
      "type": "function",
      "constant": true
    },
    {
      "inputs": [],
      "name": "gameOver",
      "outputs": [
        {
          "internalType": "bool",
          "name": "",
          "type": "bool"
        }
      ],
      "stateMutability": "view",
      "type": "function",
      "constant": true
    },
    {
      "inputs": [],
      "name": "gamePause",
      "outputs": [
        {
          "internalType": "bool",
          "name": "",
          "type": "bool"
        }
      ],
      "stateMutability": "view",
      "type": "function",
      "constant": true
    },
    {
      "inputs": [],
      "name": "owner",
      "outputs": [
        {
          "internalType": "address payable",
          "name": "",
          "type": "address"
        }
      ],
      "stateMutability": "view",
      "type": "function",
      "constant": true
    },
    {
      "inputs": [],
      "name": "player1",
      "outputs": [
        {
          "internalType": "address payable",
          "name": "",
          "type": "address"
        }
      ],
      "stateMutability": "view",
      "type": "function",
      "constant": true
    },
    {
      "inputs": [],
      "name": "player1_contract_address",
      "outputs": [
        {
          "internalType": "address",
          "name": "",
          "type": "address"
        }
      ],
      "stateMutability": "view",
      "type": "function",
      "constant": true
    },
    {
      "inputs": [],
      "name": "player2",
      "outputs": [
        {
          "internalType": "address payable",
          "name": "",
          "type": "address"
        }
      ],
      "stateMutability": "view",
      "type": "function",
      "constant": true
    },
    {
      "inputs": [],
      "name": "player2_contract_address",
      "outputs": [
        {
          "internalType": "address",
          "name": "",
          "type": "address"
        }
      ],
      "stateMutability": "view",
      "type": "function",
      "constant": true
    },
    {
      "inputs": [
        {
          "internalType": "uint256",
          "name": "",
          "type": "uint256"
        }
      ],
      "name": "players",
      "outputs": [
        {
          "internalType": "address payable",
          "name": "_address",
          "type": "address"
        },
        {
          "internalType": "uint256",
          "name": "_balance",
          "type": "uint256"
        }
      ],
      "stateMutability": "view",
      "type": "function",
      "constant": true
    },
    {
      "inputs": [],
      "name": "redeem_balanceOfplayer1",
      "outputs": [],
      "stateMutability": "payable",
      "type": "function",
      "payable": true
    },
    {
      "inputs": [],
      "name": "redeem_balanceOfplayer2",
      "outputs": [],
      "stateMutability": "payable",
      "type": "function",
      "payable": true
    },
    {
      "inputs": [],
      "name": "sent",
      "outputs": [
        {
          "internalType": "bool",
          "name": "",
          "type": "bool"
        }
      ],
      "stateMutability": "view",
      "type": "function",
      "constant": true
    },
    {
      "inputs": [],
      "name": "start_the_game",
      "outputs": [],
      "stateMutability": "nonpayable",
      "type": "function"
    },
    {
      "inputs": [],
      "name": "setPlayerAccount1",
      "outputs": [],
      "stateMutability": "nonpayable",
      "type": "function"
    },
    {
      "inputs": [],
      "name": "setPlayerAccount2",
      "outputs": [],
      "stateMutability": "nonpayable",
      "type": "function"
    },
    {
      "inputs": [
        {
          "internalType": "address payable",
          "name": "_player",
          "type": "address"
        }
      ],
      "name": "hurdle_passed",
      "outputs": [],
      "stateMutability": "nonpayable",
      "type": "function"
    },
    {
      "inputs": [
        {
          "internalType": "address payable",
          "name": "_player",
          "type": "address"
        }
      ],
      "name": "levelUp",
      "outputs": [],
      "stateMutability": "nonpayable",
      "type": "function"
    },
    {
      "inputs": [],
      "name": "checkbalance",
      "outputs": [
        {
          "internalType": "uint256",
          "name": "",
          "type": "uint256"
        }
      ],
      "stateMutability": "view",
      "type": "function",
      "constant": true
    }
  ],
  "bytecode": "0x6080604052670de0b6b3a7640000600855671bc16d674ec80000600955336000806101000a81548173ffffffffffffffffffffffffffffffffffffffff021916908373ffffffffffffffffffffffffffffffffffffffff16021790555030600160006101000a81548173ffffffffffffffffffffffffffffffffffffffff021916908373ffffffffffffffffffffffffffffffffffffffff16021790555033600260006101000a81548173ffffffffffffffffffffffffffffffffffffffff021916908373ffffffffffffffffffffffffffffffffffffffff16021790555030600360006101000a81548173ffffffffffffffffffffffffffffffffffffffff021916908373ffffffffffffffffffffffffffffffffffffffff16021790555033600660006101000a81548173ffffffffffffffffffffffffffffffffffffffff021916908373ffffffffffffffffffffffffffffffffffffffff16021790555030600760006101000a81548173ffffffffffffffffffffffffffffffffffffffff021916908373ffffffffffffffffffffffffffffffffffffffff1602179055503073ffffffffffffffffffffffffffffffffffffffff16346040516101c59061025c565b60006040518083038185875af1925050503d8060008114610202576040519150601f19603f3d011682016040523d82523d6000602084013e610207565b606091505b5050600a60028291906101000a81548160ff02191690831515021790555050610271565b600081905092915050565b50565b600061024660008361022b565b915061025182610236565b600082019050919050565b600061026782610239565b9150819050919050565b61154a80620002816000396000f3fe60806040526004361061012a5760003560e01c8063a6079f9e116100ab578063da0192471161006f578063da0192471461035c578063da3bb61a14610385578063e18b551c1461039c578063eaa9600b146103c5578063f71d96cb146103f0578063ffc36ee31461042e5761012a565b8063a6079f9e146102ba578063a9dae394146102d1578063bdb337d1146102db578063c2bfccc014610306578063d30895e4146103315761012a565b80636d8d8b6b116100f25780636d8d8b6b14610218578063824bb99d146102435780638da5cb5b1461024d57806394cc989014610278578063966b35141461028f5761012a565b80630a1443911461012f5780630fa497241461016c578063252a4b101461019757806327f8ce38146101c257806359a5f12d146101ed575b600080fd5b34801561013b57600080fd5b506101566004803603810190610151919061110f565b610459565b6040516101639190611157565b60405180910390f35b34801561017857600080fd5b50610181610479565b60405161018e9190611181565b60405180910390f35b3480156101a357600080fd5b506101ac61049f565b6040516101b991906111b5565b60405180910390f35b3480156101ce57600080fd5b506101d76104a7565b6040516101e49190611157565b60405180910390f35b3480156101f957600080fd5b506102026104ba565b60405161020f91906111f1565b60405180910390f35b34801561022457600080fd5b5061022d6104e0565b60405161023a9190611181565b60405180910390f35b61024b610506565b005b34801561025957600080fd5b506102626105a6565b60405161026f91906111f1565b60405180910390f35b34801561028457600080fd5b5061028d6105cc565b005b34801561029b57600080fd5b506102a46107fd565b6040516102b19190611181565b60405180910390f35b3480156102c657600080fd5b506102cf610823565b005b6102d961099a565b005b3480156102e757600080fd5b506102f0610a3c565b6040516102fd9190611157565b60405180910390f35b34801561031257600080fd5b5061031b610a4f565b6040516103289190611157565b60405180910390f35b34801561033d57600080fd5b50610346610a62565b60405161035391906111f1565b60405180910390f35b34801561036857600080fd5b50610383600480360381019061037e9190611238565b610a86565b005b34801561039157600080fd5b5061039a610bd6565b005b3480156103a857600080fd5b506103c360048036038101906103be9190611238565b610eb0565b005b3480156103d157600080fd5b506103da611000565b6040516103e791906111b5565b60405180910390f35b3480156103fc57600080fd5b5061041760048036038101906104129190611291565b611008565b6040516104259291906112be565b60405180910390f35b34801561043a57600080fd5b5061044361104c565b60405161045091906111b5565b60405180910390f35b60056020528060005260406000206000915054906101000a900460ff1681565b600360009054906101000a900473ffffffffffffffffffffffffffffffffffffffff1681565b600047905090565b600a60019054906101000a900460ff1681565b600260009054906101000a900473ffffffffffffffffffffffffffffffffffffffff1681565b600160009054906101000a900473ffffffffffffffffffffffffffffffffffffffff1681565b60008054906101000a900473ffffffffffffffffffffffffffffffffffffffff1673ffffffffffffffffffffffffffffffffffffffff166108fc479081150290604051600060405180830381858888f1935050505015801561056c573d6000803e3d6000fd5b507f040053da10635496f42b960180420d97a941476b406c07fc07386ed053f3d2634760405161059c91906111b5565b60405180910390a1565b600660009054906101000a900473ffffffffffffffffffffffffffffffffffffffff1681565b600073ffffffffffffffffffffffffffffffffffffffff166004600080815260200190815260200160002060000160009054906101000a900473ffffffffffffffffffffffffffffffffffffffff1673ffffffffffffffffffffffffffffffffffffffff1614610671576040517f08c379a000000000000000000000000000000000000000000000000000000000815260040161066890611344565b60405180910390fd5b600160009054906101000a900473ffffffffffffffffffffffffffffffffffffffff166004600080815260200190815260200160002060000160006101000a81548173ffffffffffffffffffffffffffffffffffffffff021916908373ffffffffffffffffffffffffffffffffffffffff1602179055506001600560006004600080815260200190815260200160002060000160009054906101000a900473ffffffffffffffffffffffffffffffffffffffff1673ffffffffffffffffffffffffffffffffffffffff1673ffffffffffffffffffffffffffffffffffffffff16815260200190815260200160002060006101000a81548160ff0219169083151502179055507f04eec0388533121c18d667b1e7f9156448d786bfdd053bd67a580249fd808d966004600080815260200190815260200160002060000160009054906101000a900473ffffffffffffffffffffffffffffffffffffffff1660046000808152602001908152602001600020600101546040516107f39291906112be565b60405180910390a1565b600760009054906101000a900473ffffffffffffffffffffffffffffffffffffffff1681565b600073ffffffffffffffffffffffffffffffffffffffff166004600080815260200190815260200160002060000160009054906101000a900473ffffffffffffffffffffffffffffffffffffffff1673ffffffffffffffffffffffffffffffffffffffff16141580156108fa5750600073ffffffffffffffffffffffffffffffffffffffff16600460006001815260200190815260200160002060000160009054906101000a900473ffffffffffffffffffffffffffffffffffffffff1673ffffffffffffffffffffffffffffffffffffffff1614155b61090357600080fd5b600a60009054906101000a900460ff1615801561092d5750600a60019054906101000a900460ff16155b61096c576040517f08c379a0000000000000000000000000000000000000000000000000000000008152600401610963906113b0565b60405180910390fd5b7f762f260439bb4be3ef6e4dc2786e2e7bd187d3d80b79057d7a424fe98563e33560405160405180910390a1565b600260009054906101000a900473ffffffffffffffffffffffffffffffffffffffff1673ffffffffffffffffffffffffffffffffffffffff166108fc479081150290604051600060405180830381858888f19350505050158015610a02573d6000803e3d6000fd5b507f1e217b823bccc033f043327bd131e05a91f0cd4bb34212e34486280fae45b2d847604051610a3291906111b5565b60405180910390a1565b600a60009054906101000a900460ff1681565b600a60029054906101000a900460ff1681565b60008054906101000a900473ffffffffffffffffffffffffffffffffffffffff1681565b610a8e611054565b80610ae25750600560003373ffffffffffffffffffffffffffffffffffffffff1673ffffffffffffffffffffffffffffffffffffffff16815260200190815260200160002060009054906101000a900460ff165b610b21576040517f08c379a0000000000000000000000000000000000000000000000000000000008152600401610b189061141c565b60405180910390fd5b600a60009054906101000a900460ff16158015610b4b5750600a60019054906101000a900460ff16155b610b8a576040517f08c379a0000000000000000000000000000000000000000000000000000000008152600401610b81906113b0565b60405180910390fd5b8073ffffffffffffffffffffffffffffffffffffffff166108fc6008549081150290604051600060405180830381858888f19350505050158015610bd2573d6000803e3d6000fd5b5050565b6004600080815260200190815260200160002060000160009054906101000a900473ffffffffffffffffffffffffffffffffffffffff1673ffffffffffffffffffffffffffffffffffffffff163373ffffffffffffffffffffffffffffffffffffffff1603610c7a576040517f08c379a0000000000000000000000000000000000000000000000000000000008152600401610c7190611488565b60405180910390fd5b600073ffffffffffffffffffffffffffffffffffffffff16600460006001815260200190815260200160002060000160009054906101000a900473ffffffffffffffffffffffffffffffffffffffff1673ffffffffffffffffffffffffffffffffffffffff1614610d20576040517f08c379a0000000000000000000000000000000000000000000000000000000008152600401610d17906114f4565b60405180910390fd5b600360009054906101000a900473ffffffffffffffffffffffffffffffffffffffff16600460006001815260200190815260200160002060000160006101000a81548173ffffffffffffffffffffffffffffffffffffffff021916908373ffffffffffffffffffffffffffffffffffffffff160217905550600160056000600460006001815260200190815260200160002060000160009054906101000a900473ffffffffffffffffffffffffffffffffffffffff1673ffffffffffffffffffffffffffffffffffffffff1673ffffffffffffffffffffffffffffffffffffffff16815260200190815260200160002060006101000a81548160ff0219169083151502179055507f07516aa3db5ad56ee8ba7ac47fa1b5384028361880482a41e052b557c5e7e40d600460006001815260200190815260200160002060000160009054906101000a900473ffffffffffffffffffffffffffffffffffffffff16600460006001815260200190815260200160002060010154604051610ea69291906112be565b60405180910390a1565b610eb8611054565b80610f0c5750600560003373ffffffffffffffffffffffffffffffffffffffff1673ffffffffffffffffffffffffffffffffffffffff16815260200190815260200160002060009054906101000a900460ff165b610f4b576040517f08c379a0000000000000000000000000000000000000000000000000000000008152600401610f429061141c565b60405180910390fd5b600a60009054906101000a900460ff16158015610f755750600a60019054906101000a900460ff16155b610fb4576040517f08c379a0000000000000000000000000000000000000000000000000000000008152600401610fab906113b0565b60405180910390fd5b8073ffffffffffffffffffffffffffffffffffffffff166108fc6009549081150290604051600060405180830381858888f19350505050158015610ffc573d6000803e3d6000fd5b5050565b600047905090565b60046020528060005260406000206000915090508060000160009054906101000a900473ffffffffffffffffffffffffffffffffffffffff16908060010154905082565b600047905090565b6000600660009054906101000a900473ffffffffffffffffffffffffffffffffffffffff1673ffffffffffffffffffffffffffffffffffffffff163373ffffffffffffffffffffffffffffffffffffffff1614905090565b600080fd5b600073ffffffffffffffffffffffffffffffffffffffff82169050919050565b60006110dc826110b1565b9050919050565b6110ec816110d1565b81146110f757600080fd5b50565b600081359050611109816110e3565b92915050565b600060208284031215611125576111246110ac565b5b6000611133848285016110fa565b91505092915050565b60008115159050919050565b6111518161113c565b82525050565b600060208201905061116c6000830184611148565b92915050565b61117b816110d1565b82525050565b60006020820190506111966000830184611172565b92915050565b6000819050919050565b6111af8161119c565b82525050565b60006020820190506111ca60008301846111a6565b92915050565b60006111db826110b1565b9050919050565b6111eb816111d0565b82525050565b600060208201905061120660008301846111e2565b92915050565b611215816111d0565b811461122057600080fd5b50565b6000813590506112328161120c565b92915050565b60006020828403121561124e5761124d6110ac565b5b600061125c84828501611223565b91505092915050565b61126e8161119c565b811461127957600080fd5b50565b60008135905061128b81611265565b92915050565b6000602082840312156112a7576112a66110ac565b5b60006112b58482850161127c565b91505092915050565b60006040820190506112d360008301856111e2565b6112e060208301846111a6565b9392505050565b600082825260208201905092915050565b7f506c617965723120697320616c7265616479206a6f696e656400000000000000600082015250565b600061132e6019836112e7565b9150611339826112f8565b602082019050919050565b6000602082019050818103600083015261135d81611321565b9050919050565b7f47616d652068617320616c726561647920737461746564000000000000000000600082015250565b600061139a6017836112e7565b91506113a582611364565b602082019050919050565b600060208201905081810360008301526113c98161138d565b9050919050565b7f596f7520617265206e6f7420617574686f72697a656400000000000000000000600082015250565b60006114066016836112e7565b9150611411826113d0565b602082019050919050565b60006020820190508181036000830152611435816113f9565b9050919050565b7f506c6179657220616c7265616479207265676973746572656400000000000000600082015250565b60006114726019836112e7565b915061147d8261143c565b602082019050919050565b600060208201905081810360008301526114a181611465565b9050919050565b7f506c617965723220697320616c72656164792065786973740000000000000000600082015250565b60006114de6018836112e7565b91506114e9826114a8565b602082019050919050565b6000602082019050818103600083015261150d816114d1565b905091905056fea2646970667358221220c091552c3260b69d35bb5fa2eace27c5c5040cd18b2f7dd54d554611a630bd5364736f6c634300080d0033",
  "immutableReferences": {},
  "source": "// SPDX-License-Identifier: GPL-3.0\n\npragma solidity 0.8.13;\n\nimport \"./Player1.sol\";\nimport \"./Player2.sol\";\n\n\ncontract Game is Player1, Player2{\n\n    struct Player{\n        address payable _address;\n        uint _balance;\n    }\n\n    mapping(uint => Player) public players ;\n    mapping(address => bool) public approvers;\n\n    address payable public owner;\n    address public contract_address;\n    // uint amt_transfer_to_contract = 10 ether;\n    uint hurdle_winning_amt = 1 ether;\n    uint reward = 2 ether;\n    bool public gameOver;\n    bool public gamePause;\n    bool public sent;\n\n\n    constructor() payable {\n        owner = payable(msg.sender);\n        contract_address = address(this);\n        (sent, ) = address(this).call{value: msg.value}(\"\");\n\n    }\n\n    event Money_Transfered_to_contract();\n    event GameStarted();\n    event Player1Joined(address payable player, uint _balance);\n    event Player2Joined(address payable player, uint _balance);\n\n    modifier onlyApproved() {\n        require(isOwner() || approvers[msg.sender],\"You are not authorized\");\n        _;\n    }\n\n    function isOwner() internal view returns (bool) {\n        return msg.sender == owner;\n    }\n\n    function start_the_game() public{\n        require(players[0]._address != address(0) && players[1]._address != address(0));\n        require(!gameOver && !gamePause, \"Game has already stated\");\n        emit GameStarted();\n    }\n\n\n    function setPlayerAccount1() public{\n        require(players[0]._address == address(0),\"Player1 is already joined\");\n        players[0]._address = payable(Player1.player1_contract_address);\n        approvers[players[0]._address] = true;\n        emit Player1Joined(players[0]._address, players[0]._balance);\n    }\n    \n     function setPlayerAccount2() public {\n        require(msg.sender != players[0]._address,\"Player already registered\");\n        require(players[1]._address == address(0),\"Player2 is already exist\" );\n        players[1]._address = payable(Player2.player2_contract_address);\n        approvers[players[1]._address] = true;\n        emit Player2Joined(players[1]._address, players[1]._balance);\n     }\n\n    \n\n    function hurdle_passed(address payable _player) public onlyApproved() {\n        require(!gameOver && !gamePause, \"Game has already stated\");\n        _player.transfer(hurdle_winning_amt);\n        \n    }\n\n    function levelUp(address payable _player) public onlyApproved() {\n        require(!gameOver && !gamePause, \"Game has already stated\");\n        _player.transfer(reward);\n        \n       \n    }\n\n\n    function checkbalance() public view returns(uint){\n        return (address(this).balance);\n\n    }\n\n}",
  "sourcePath": "/home/lav/Documents/Backuop/BlockChain/Projects/Tokens_wallet/contracts/game.sol",
  "compiler": {
    "name": "solc",
    "version": "0.8.13+commit.abaa5c0e.Emscripten.clang"
  },
  "schemaVersion": "3.4.7",
  "updatedAt": "2022-05-09T11:38:58.185Z",
  "networkType": "ethereum",
  "devdoc": {
    "kind": "dev",
    "methods": {},
    "version": 1
  },
  "userdoc": {
    "kind": "user",
    "methods": {},
    "version": 1
  }
}