{
  "contractName": "Player1",
  "abi": [
    {
      "inputs": [],
      "stateMutability": "nonpayable",
      "type": "constructor"
    },
    {
      "anonymous": false,
      "inputs": [
        {
          "indexed": false,
          "internalType": "uint256",
          "name": "_balance",
          "type": "uint256"
        }
      ],
      "name": "BalanceRedeemedOfplayer1",
      "type": "event"
    },
    {
      "inputs": [],
      "name": "player1",
      "outputs": [
        {
          "internalType": "address payable",
          "name": "",
          "type": "address"
        }
      ],
      "stateMutability": "view",
      "type": "function",
      "constant": true
    },
    {
      "inputs": [],
      "name": "player1_contract_address",
      "outputs": [
        {
          "internalType": "address",
          "name": "",
          "type": "address"
        }
      ],
      "stateMutability": "view",
      "type": "function",
      "constant": true
    },
    {
      "inputs": [],
      "name": "redeem_balanceOfplayer1",
      "outputs": [],
      "stateMutability": "payable",
      "type": "function",
      "payable": true
    },
    {
      "inputs": [],
      "name": "checkbalanceOfplayer1",
      "outputs": [
        {
          "internalType": "uint256",
          "name": "",
          "type": "uint256"
        }
      ],
      "stateMutability": "view",
      "type": "function",
      "constant": true
    }
  ],
  "bytecode": "0x608060405234801561001057600080fd5b50336000806101000a81548173ffffffffffffffffffffffffffffffffffffffff021916908373ffffffffffffffffffffffffffffffffffffffff16021790555030600160006101000a81548173ffffffffffffffffffffffffffffffffffffffff021916908373ffffffffffffffffffffffffffffffffffffffff1602179055506102c3806100a16000396000f3fe60806040526004361061003f5760003560e01c80636d8d8b6b14610044578063824bb99d1461006f578063d30895e414610079578063ffc36ee3146100a4575b600080fd5b34801561005057600080fd5b506100596100cf565b6040516100669190610202565b60405180910390f35b6100776100f5565b005b34801561008557600080fd5b5061008e610195565b60405161009b919061023e565b60405180910390f35b3480156100b057600080fd5b506100b96101b9565b6040516100c69190610272565b60405180910390f35b600160009054906101000a900473ffffffffffffffffffffffffffffffffffffffff1681565b60008054906101000a900473ffffffffffffffffffffffffffffffffffffffff1673ffffffffffffffffffffffffffffffffffffffff166108fc479081150290604051600060405180830381858888f1935050505015801561015b573d6000803e3d6000fd5b507f040053da10635496f42b960180420d97a941476b406c07fc07386ed053f3d2634760405161018b9190610272565b60405180910390a1565b60008054906101000a900473ffffffffffffffffffffffffffffffffffffffff1681565b600047905090565b600073ffffffffffffffffffffffffffffffffffffffff82169050919050565b60006101ec826101c1565b9050919050565b6101fc816101e1565b82525050565b600060208201905061021760008301846101f3565b92915050565b6000610228826101c1565b9050919050565b6102388161021d565b82525050565b6000602082019050610253600083018461022f565b92915050565b6000819050919050565b61026c81610259565b82525050565b60006020820190506102876000830184610263565b9291505056fea264697066735822122080b7ea78bdbf1360a7813e27e1e148ac30826c2f80218622e4278ba6043e3d9d64736f6c634300080d0033",
  "immutableReferences": {},
  "source": "// SPDX-License-Identifier: GPL-3.0\n\npragma solidity 0.8.13;\n\ncontract Player1 {\n    address payable public  player1;\n    address public player1_contract_address;\n\n    event BalanceRedeemedOfplayer1(uint _balance);\n\n    constructor(){\n        player1 = payable(msg.sender);\n        player1_contract_address = address(this);\n\n    }\n\n    function redeem_balanceOfplayer1() payable public {\n        player1.transfer(address(this).balance);\n        emit BalanceRedeemedOfplayer1(address(this).balance);\n    }\n\n    function checkbalanceOfplayer1() public view returns(uint){\n        return (address(this).balance);\n\n    }\n\n}",
  "sourcePath": "/home/lav/Documents/Backuop/BlockChain/Projects/Tokens_wallet/contracts/Player1.sol",
  "compiler": {
    "name": "solc",
    "version": "0.8.13+commit.abaa5c0e.Emscripten.clang"
  },
  "schemaVersion": "3.4.7",
  "updatedAt": "2022-05-09T11:38:56.330Z",
  "networkType": "ethereum",
  "devdoc": {
    "kind": "dev",
    "methods": {},
    "version": 1
  },
  "userdoc": {
    "kind": "user",
    "methods": {},
    "version": 1
  }
}