{
  "contractName": "Player2",
  "abi": [
    {
      "inputs": [],
      "stateMutability": "nonpayable",
      "type": "constructor"
    },
    {
      "anonymous": false,
      "inputs": [
        {
          "indexed": false,
          "internalType": "uint256",
          "name": "_balance",
          "type": "uint256"
        }
      ],
      "name": "BalanceRedeemedOfplayer2",
      "type": "event"
    },
    {
      "inputs": [],
      "name": "player2",
      "outputs": [
        {
          "internalType": "address payable",
          "name": "",
          "type": "address"
        }
      ],
      "stateMutability": "view",
      "type": "function",
      "constant": true
    },
    {
      "inputs": [],
      "name": "player2_contract_address",
      "outputs": [
        {
          "internalType": "address",
          "name": "",
          "type": "address"
        }
      ],
      "stateMutability": "view",
      "type": "function",
      "constant": true
    },
    {
      "inputs": [],
      "name": "redeem_balanceOfplayer2",
      "outputs": [],
      "stateMutability": "payable",
      "type": "function",
      "payable": true
    },
    {
      "inputs": [],
      "name": "checkbalanceOfplayer2",
      "outputs": [
        {
          "internalType": "uint256",
          "name": "",
          "type": "uint256"
        }
      ],
      "stateMutability": "view",
      "type": "function",
      "constant": true
    }
  ],
  "bytecode": "0x608060405234801561001057600080fd5b50336000806101000a81548173ffffffffffffffffffffffffffffffffffffffff021916908373ffffffffffffffffffffffffffffffffffffffff16021790555030600160006101000a81548173ffffffffffffffffffffffffffffffffffffffff021916908373ffffffffffffffffffffffffffffffffffffffff1602179055506102c3806100a16000396000f3fe60806040526004361061003f5760003560e01c80630fa4972414610044578063252a4b101461006f57806359a5f12d1461009a578063a9dae394146100c5575b600080fd5b34801561005057600080fd5b506100596100cf565b6040516100669190610202565b60405180910390f35b34801561007b57600080fd5b506100846100f5565b6040516100919190610236565b60405180910390f35b3480156100a657600080fd5b506100af6100fd565b6040516100bc9190610272565b60405180910390f35b6100cd610121565b005b600160009054906101000a900473ffffffffffffffffffffffffffffffffffffffff1681565b600047905090565b60008054906101000a900473ffffffffffffffffffffffffffffffffffffffff1681565b60008054906101000a900473ffffffffffffffffffffffffffffffffffffffff1673ffffffffffffffffffffffffffffffffffffffff166108fc479081150290604051600060405180830381858888f19350505050158015610187573d6000803e3d6000fd5b507f1e217b823bccc033f043327bd131e05a91f0cd4bb34212e34486280fae45b2d8476040516101b79190610236565b60405180910390a1565b600073ffffffffffffffffffffffffffffffffffffffff82169050919050565b60006101ec826101c1565b9050919050565b6101fc816101e1565b82525050565b600060208201905061021760008301846101f3565b92915050565b6000819050919050565b6102308161021d565b82525050565b600060208201905061024b6000830184610227565b92915050565b600061025c826101c1565b9050919050565b61026c81610251565b82525050565b60006020820190506102876000830184610263565b9291505056fea264697066735822122062630be362b1aac6836d86f97c3befb6c5459278aee40dd012793b4af6f7448564736f6c634300080d0033",
  "immutableReferences": {},
  "source": "// SPDX-License-Identifier: GPL-3.0\n\npragma solidity 0.8.13;\n\ncontract Player2 {\n    address payable public  player2;\n    address public player2_contract_address;\n\n    event BalanceRedeemedOfplayer2(uint _balance);\n\n\n    constructor(){\n        player2 = payable(msg.sender);\n        player2_contract_address = address(this);\n\n    }\n\n    function redeem_balanceOfplayer2() payable public {\n        player2.transfer(address(this).balance);\n        emit BalanceRedeemedOfplayer2(address(this).balance);\n    }\n\n    function checkbalanceOfplayer2() public view returns(uint){\n        return (address(this).balance);\n\n    }\n\n}",
  "sourcePath": "/home/lav/Documents/Backuop/BlockChain/Projects/Tokens_wallet/contracts/Player2.sol",
  "compiler": {
    "name": "solc",
    "version": "0.8.13+commit.abaa5c0e.Emscripten.clang"
  },
  "schemaVersion": "3.4.7",
  "updatedAt": "2022-05-09T11:38:57.131Z",
  "networkType": "ethereum",
  "devdoc": {
    "kind": "dev",
    "methods": {},
    "version": 1
  },
  "userdoc": {
    "kind": "user",
    "methods": {},
    "version": 1
  }
}