{
  "contractName": "SharedTokenWallet",
  "abi": [
    {
      "inputs": [],
      "stateMutability": "nonpayable",
      "type": "constructor"
    },
    {
      "inputs": [
        {
          "internalType": "address",
          "name": "",
          "type": "address"
        }
      ],
      "name": "approvers",
      "outputs": [
        {
          "internalType": "bool",
          "name": "",
          "type": "bool"
        }
      ],
      "stateMutability": "view",
      "type": "function",
      "constant": true
    },
    {
      "inputs": [],
      "name": "owner",
      "outputs": [
        {
          "internalType": "address payable",
          "name": "",
          "type": "address"
        }
      ],
      "stateMutability": "view",
      "type": "function",
      "constant": true
    },
    {
      "inputs": [],
      "name": "player1",
      "outputs": [
        {
          "internalType": "address",
          "name": "",
          "type": "address"
        }
      ],
      "stateMutability": "view",
      "type": "function",
      "constant": true
    },
    {
      "inputs": [],
      "name": "player2",
      "outputs": [
        {
          "internalType": "address",
          "name": "",
          "type": "address"
        }
      ],
      "stateMutability": "view",
      "type": "function",
      "constant": true
    },
    {
      "inputs": [
        {
          "internalType": "address",
          "name": "",
          "type": "address"
        }
      ],
      "name": "tokenBalance",
      "outputs": [
        {
          "internalType": "uint256",
          "name": "",
          "type": "uint256"
        }
      ],
      "stateMutability": "view",
      "type": "function",
      "constant": true
    },
    {
      "inputs": [],
      "name": "setPlayerAccount1",
      "outputs": [
        {
          "internalType": "string",
          "name": "",
          "type": "string"
        }
      ],
      "stateMutability": "nonpayable",
      "type": "function"
    },
    {
      "inputs": [],
      "name": "setPlayerAccount2",
      "outputs": [
        {
          "internalType": "string",
          "name": "",
          "type": "string"
        }
      ],
      "stateMutability": "nonpayable",
      "type": "function"
    },
    {
      "inputs": [],
      "name": "purchaseToken",
      "outputs": [
        {
          "internalType": "string",
          "name": "",
          "type": "string"
        },
        {
          "internalType": "uint256",
          "name": "",
          "type": "uint256"
        }
      ],
      "stateMutability": "payable",
      "type": "function",
      "payable": true
    },
    {
      "inputs": [
        {
          "internalType": "address",
          "name": "_winner",
          "type": "address"
        },
        {
          "internalType": "address",
          "name": "_looser",
          "type": "address"
        }
      ],
      "name": "point",
      "outputs": [],
      "stateMutability": "nonpayable",
      "type": "function"
    },
    {
      "inputs": [
        {
          "internalType": "address",
          "name": "_winner",
          "type": "address"
        }
      ],
      "name": "levelUp",
      "outputs": [],
      "stateMutability": "nonpayable",
      "type": "function"
    },
    {
      "inputs": [],
      "name": "checkbalance",
      "outputs": [
        {
          "internalType": "uint256",
          "name": "",
          "type": "uint256"
        }
      ],
      "stateMutability": "view",
      "type": "function",
      "constant": true
    }
  ],
  "bytecode": "0x60806040526509184e72a00060025534801561001a57600080fd5b5033600360006101000a81548173ffffffffffffffffffffffffffffffffffffffff021916908373ffffffffffffffffffffffffffffffffffffffff1602179055506103e8600080600360009054906101000a900473ffffffffffffffffffffffffffffffffffffffff1673ffffffffffffffffffffffffffffffffffffffff1673ffffffffffffffffffffffffffffffffffffffff1681526020019081526020016000208190555061197f806100d26000396000f3fe60806040526004361061009c5760003560e01c8063a95c4d6211610064578063a95c4d6214610188578063d30895e4146101a7578063da3bb61a146101d2578063e18b551c146101fd578063eaa9600b14610226578063eedc966a146102515761009c565b80630a144391146100a157806359a5f12d146100de5780636d82ddaa146101095780638da5cb5b1461013257806394cc98901461015d575b600080fd5b3480156100ad57600080fd5b506100c860048036038101906100c39190611338565b61028e565b6040516100d59190611380565b60405180910390f35b3480156100ea57600080fd5b506100f36102ae565b60405161010091906113aa565b60405180910390f35b34801561011557600080fd5b50610130600480360381019061012b91906113c5565b6102d4565b005b34801561013e57600080fd5b506101476105d2565b6040516101549190611426565b60405180910390f35b34801561016957600080fd5b506101726105f8565b60405161017f91906114da565b60405180910390f35b610190610783565b60405161019e929190611515565b60405180910390f35b3480156101b357600080fd5b506101bc610e0d565b6040516101c991906113aa565b60405180910390f35b3480156101de57600080fd5b506101e7610e33565b6040516101f491906114da565b60405180910390f35b34801561020957600080fd5b50610224600480360381019061021f9190611338565b61104e565b005b34801561023257600080fd5b5061023b61125d565b6040516102489190611545565b60405180910390f35b34801561025d57600080fd5b5061027860048036038101906102739190611338565b611265565b6040516102859190611545565b60405180910390f35b60016020528060005260406000206000915054906101000a900460ff1681565b600560009054906101000a900473ffffffffffffffffffffffffffffffffffffffff1681565b6102dc61127d565b806103305750600160003373ffffffffffffffffffffffffffffffffffffffff1673ffffffffffffffffffffffffffffffffffffffff16815260200190815260200160002060009054906101000a900460ff165b61036f576040517f08c379a0000000000000000000000000000000000000000000000000000000008152600401610366906115ac565b60405180910390fd5b60016000808373ffffffffffffffffffffffffffffffffffffffff1673ffffffffffffffffffffffffffffffffffffffff1681526020019081526020016000205410156103f1576040517f08c379a00000000000000000000000000000000000000000000000000000000081526004016103e890611618565b60405180910390fd5b6000808373ffffffffffffffffffffffffffffffffffffffff1673ffffffffffffffffffffffffffffffffffffffff1681526020019081526020016000205460016000808573ffffffffffffffffffffffffffffffffffffffff1673ffffffffffffffffffffffffffffffffffffffff1681526020019081526020016000205461047b9190611667565b11610489576104886116bd565b5b6000808273ffffffffffffffffffffffffffffffffffffffff1673ffffffffffffffffffffffffffffffffffffffff1681526020019081526020016000205460016000808473ffffffffffffffffffffffffffffffffffffffff1673ffffffffffffffffffffffffffffffffffffffff1681526020019081526020016000205461051391906116ec565b1115610522576105216116bd565b5b60016000808373ffffffffffffffffffffffffffffffffffffffff1673ffffffffffffffffffffffffffffffffffffffff168152602001908152602001600020600082825461057191906116ec565b9250508190555060016000808473ffffffffffffffffffffffffffffffffffffffff1673ffffffffffffffffffffffffffffffffffffffff16815260200190815260200160002060008282546105c79190611667565b925050819055505050565b600360009054906101000a900473ffffffffffffffffffffffffffffffffffffffff1681565b6060600073ffffffffffffffffffffffffffffffffffffffff16600460009054906101000a900473ffffffffffffffffffffffffffffffffffffffff1673ffffffffffffffffffffffffffffffffffffffff16036107475733600460006101000a81548173ffffffffffffffffffffffffffffffffffffffff021916908373ffffffffffffffffffffffffffffffffffffffff1602179055506001806000600460009054906101000a900473ffffffffffffffffffffffffffffffffffffffff1673ffffffffffffffffffffffffffffffffffffffff1673ffffffffffffffffffffffffffffffffffffffff16815260200190815260200160002060006101000a81548160ff0219169083151502179055506040518060400160405280601181526020017f506c61796572312069732072656164792e0000000000000000000000000000008152509050610780565b6040518060400160405280601981526020017f506c617965723120697320616c72656164792065786973742e0000000000000081525090505b90565b6060600061078f61127d565b806107e35750600160003373ffffffffffffffffffffffffffffffffffffffff1673ffffffffffffffffffffffffffffffffffffffff16815260200190815260200160002060009054906101000a900460ff165b610822576040517f08c379a0000000000000000000000000000000000000000000000000000000008152600401610819906115ac565b60405180910390fd5b600034600254600080600360009054906101000a900473ffffffffffffffffffffffffffffffffffffffff1673ffffffffffffffffffffffffffffffffffffffff1673ffffffffffffffffffffffffffffffffffffffff168152602001908152602001600020546108939190611720565b61089d91906117a9565b116108dd576040517f08c379a00000000000000000000000000000000000000000000000000000000081526004016108d490611826565b60405180910390fd5b600460009054906101000a900473ffffffffffffffffffffffffffffffffffffffff1673ffffffffffffffffffffffffffffffffffffffff163373ffffffffffffffffffffffffffffffffffffffff1603610b44576002543461094091906117a9565b600080600360009054906101000a900473ffffffffffffffffffffffffffffffffffffffff1673ffffffffffffffffffffffffffffffffffffffff1673ffffffffffffffffffffffffffffffffffffffff16815260200190815260200160002060008282546109af91906116ec565b92505081905550600254346109c491906117a9565b600080600460009054906101000a900473ffffffffffffffffffffffffffffffffffffffff1673ffffffffffffffffffffffffffffffffffffffff1673ffffffffffffffffffffffffffffffffffffffff1681526020019081526020016000206000828254610a339190611667565b92505081905550600360009054906101000a900473ffffffffffffffffffffffffffffffffffffffff1673ffffffffffffffffffffffffffffffffffffffff166108fc349081150290604051600060405180830381858888f19350505050158015610aa2573d6000803e3d6000fd5b50600080600460009054906101000a900473ffffffffffffffffffffffffffffffffffffffff1673ffffffffffffffffffffffffffffffffffffffff1673ffffffffffffffffffffffffffffffffffffffff168152602001908152602001600020546040518060400160405280601681526020017f506c6179657231206861766520707572636861736564000000000000000000008152509091509150610e09565b600560009054906101000a900473ffffffffffffffffffffffffffffffffffffffff1673ffffffffffffffffffffffffffffffffffffffff163373ffffffffffffffffffffffffffffffffffffffff1603610dab5760025434610ba791906117a9565b600080600360009054906101000a900473ffffffffffffffffffffffffffffffffffffffff1673ffffffffffffffffffffffffffffffffffffffff1673ffffffffffffffffffffffffffffffffffffffff1681526020019081526020016000206000828254610c1691906116ec565b9250508190555060025434610c2b91906117a9565b600080600560009054906101000a900473ffffffffffffffffffffffffffffffffffffffff1673ffffffffffffffffffffffffffffffffffffffff1673ffffffffffffffffffffffffffffffffffffffff1681526020019081526020016000206000828254610c9a9190611667565b92505081905550600360009054906101000a900473ffffffffffffffffffffffffffffffffffffffff1673ffffffffffffffffffffffffffffffffffffffff166108fc349081150290604051600060405180830381858888f19350505050158015610d09573d6000803e3d6000fd5b50600080600560009054906101000a900473ffffffffffffffffffffffffffffffffffffffff1673ffffffffffffffffffffffffffffffffffffffff1673ffffffffffffffffffffffffffffffffffffffff168152602001908152602001600020546040518060400160405280601681526020017f506c6179657231206861766520707572636861736564000000000000000000008152509091509150610e09565b6000803373ffffffffffffffffffffffffffffffffffffffff1673ffffffffffffffffffffffffffffffffffffffff168152602001908152602001600020546040518060600160405280602b815260200161191f602b913990915091505b9091565b600460009054906101000a900473ffffffffffffffffffffffffffffffffffffffff1681565b6060600460009054906101000a900473ffffffffffffffffffffffffffffffffffffffff1673ffffffffffffffffffffffffffffffffffffffff163373ffffffffffffffffffffffffffffffffffffffff1603610ec5576040517f08c379a0000000000000000000000000000000000000000000000000000000008152600401610ebc90611892565b60405180910390fd5b600073ffffffffffffffffffffffffffffffffffffffff16600560009054906101000a900473ffffffffffffffffffffffffffffffffffffffff1673ffffffffffffffffffffffffffffffffffffffff16036110125733600560006101000a81548173ffffffffffffffffffffffffffffffffffffffff021916908373ffffffffffffffffffffffffffffffffffffffff1602179055506001806000600560009054906101000a900473ffffffffffffffffffffffffffffffffffffffff1673ffffffffffffffffffffffffffffffffffffffff1673ffffffffffffffffffffffffffffffffffffffff16815260200190815260200160002060006101000a81548160ff0219169083151502179055506040518060400160405280601181526020017f506c61796572322069732072656164792e000000000000000000000000000000815250905061104b565b6040518060400160405280601981526020017f506c617965723220697320616c72656164792065786973742e0000000000000081525090505b90565b61105661127d565b806110aa5750600160003373ffffffffffffffffffffffffffffffffffffffff1673ffffffffffffffffffffffffffffffffffffffff16815260200190815260200160002060009054906101000a900460ff165b6110e9576040517f08c379a00000000000000000000000000000000000000000000000000000000081526004016110e0906115ac565b60405180910390fd5b600a600080600360009054906101000a900473ffffffffffffffffffffffffffffffffffffffff1673ffffffffffffffffffffffffffffffffffffffff1673ffffffffffffffffffffffffffffffffffffffff168152602001908152602001600020541161118c576040517f08c379a0000000000000000000000000000000000000000000000000000000008152600401611183906118fe565b60405180910390fd5b600a600080600360009054906101000a900473ffffffffffffffffffffffffffffffffffffffff1673ffffffffffffffffffffffffffffffffffffffff1673ffffffffffffffffffffffffffffffffffffffff16815260200190815260200160002060008282546111fd91906116ec565b92505081905550600a6000808373ffffffffffffffffffffffffffffffffffffffff1673ffffffffffffffffffffffffffffffffffffffff16815260200190815260200160002060008282546112539190611667565b9250508190555050565b600047905090565b60006020528060005260406000206000915090505481565b6000600360009054906101000a900473ffffffffffffffffffffffffffffffffffffffff1673ffffffffffffffffffffffffffffffffffffffff163373ffffffffffffffffffffffffffffffffffffffff1614905090565b600080fd5b600073ffffffffffffffffffffffffffffffffffffffff82169050919050565b6000611305826112da565b9050919050565b611315816112fa565b811461132057600080fd5b50565b6000813590506113328161130c565b92915050565b60006020828403121561134e5761134d6112d5565b5b600061135c84828501611323565b91505092915050565b60008115159050919050565b61137a81611365565b82525050565b60006020820190506113956000830184611371565b92915050565b6113a4816112fa565b82525050565b60006020820190506113bf600083018461139b565b92915050565b600080604083850312156113dc576113db6112d5565b5b60006113ea85828601611323565b92505060206113fb85828601611323565b9150509250929050565b6000611410826112da565b9050919050565b61142081611405565b82525050565b600060208201905061143b6000830184611417565b92915050565b600081519050919050565b600082825260208201905092915050565b60005b8381101561147b578082015181840152602081019050611460565b8381111561148a576000848401525b50505050565b6000601f19601f8301169050919050565b60006114ac82611441565b6114b6818561144c565b93506114c681856020860161145d565b6114cf81611490565b840191505092915050565b600060208201905081810360008301526114f481846114a1565b905092915050565b6000819050919050565b61150f816114fc565b82525050565b6000604082019050818103600083015261152f81856114a1565b905061153e6020830184611506565b9392505050565b600060208201905061155a6000830184611506565b92915050565b7f596f7520617265206e6f7420617574686f72697a656400000000000000000000600082015250565b600061159660168361144c565b91506115a182611560565b602082019050919050565b600060208201905081810360008301526115c581611589565b9050919050565b7f4e6f7420656e6f75676820746f6b656e73000000000000000000000000000000600082015250565b600061160260118361144c565b915061160d826115cc565b602082019050919050565b60006020820190508181036000830152611631816115f5565b9050919050565b7f4e487b7100000000000000000000000000000000000000000000000000000000600052601160045260246000fd5b6000611672826114fc565b915061167d836114fc565b9250827fffffffffffffffffffffffffffffffffffffffffffffffffffffffffffffffff038211156116b2576116b1611638565b5b828201905092915050565b7f4e487b7100000000000000000000000000000000000000000000000000000000600052600160045260246000fd5b60006116f7826114fc565b9150611702836114fc565b92508282101561171557611714611638565b5b828203905092915050565b600061172b826114fc565b9150611736836114fc565b9250817fffffffffffffffffffffffffffffffffffffffffffffffffffffffffffffffff048311821515161561176f5761176e611638565b5b828202905092915050565b7f4e487b7100000000000000000000000000000000000000000000000000000000600052601260045260246000fd5b60006117b4826114fc565b91506117bf836114fc565b9250826117cf576117ce61177a565b5b828204905092915050565b7f6e6f7420656e6f75676820746f6b656e73000000000000000000000000000000600082015250565b600061181060118361144c565b915061181b826117da565b602082019050919050565b6000602082019050818103600083015261183f81611803565b9050919050565b7f506c6179657220616c7265616479207265676973746572656400000000000000600082015250565b600061187c60198361144c565b915061188782611846565b602082019050919050565b600060208201905081810360008301526118ab8161186f565b9050919050565b7f4e6f7420656e6f75676820746f6b656e00000000000000000000000000000000600082015250565b60006118e860108361144c565b91506118f3826118b2565b602082019050919050565b60006020820190508181036000830152611917816118db565b905091905056fe506c61796572206e6f7420617574686f726973656420736f206e6f2070757263686173652068617070656ea264697066735822122068236596138f161b5ba7bdb8c585d6ea64615950af9c0f38a605b4acc903592e64736f6c634300080d0033",
  "immutableReferences": {},
  "source": "// SPDX-License-Identifier: GPL-3.0\n\npragma solidity 0.8.13;\n\ncontract SharedTokenWallet{\n\n    mapping(address => uint) public tokenBalance;\n    mapping(address => bool) public approvers;\n\n    uint tokenPrice = 10000000000000 wei;\n\n    address payable public owner;\n    address public player1;\n    address public player2;\n\n    constructor(){\n        owner = payable(msg.sender);\n        tokenBalance[owner] = 1000;\n\n    }\n\n    modifier onlyApproved() {\n        require(isOwner() || approvers[msg.sender],\"You are not authorized\");\n        _;\n    }\n\n    function isOwner() internal view returns (bool) {\n        return msg.sender == owner;\n    }\n    \n    function setPlayerAccount1() public returns(string memory){\n        if(player1 == address(0)  ){\n            player1 = msg.sender;\n            approvers[player1] = true;\n            return(\"Player1 is ready.\");\n        }\n        else{\n            return(\"Player1 is already exist.\");\n        }\n    }\n    \n     function setPlayerAccount2() public returns(string memory){\n        require(msg.sender != player1,\"Player already registered\");\n        if(player2 == address(0) ){\n            player2 = msg.sender;\n            approvers[player2] = true;\n            return(\"Player2 is ready.\");\n        }\n        else{\n            return(\"Player2 is already exist.\");\n        }\n    }\n\n    function purchaseToken() public payable onlyApproved() returns(string memory, uint)  {\n\n        // require(msg.sender == player1 || msg.sender == player2,\"You are not authorized player\" );\n        require((tokenBalance[owner] * tokenPrice) / msg.value > 0, \"not enough tokens\" );\n        if(msg.sender == player1){\n            tokenBalance[owner] -= msg.value / tokenPrice;\n            tokenBalance[player1] += msg.value / tokenPrice;\n            owner.transfer(msg.value);\n            return(\"Player1 have purchased\",tokenBalance[player1]);\n\n        }\n\n        else if(msg.sender == player2){\n            tokenBalance[owner] -= msg.value / tokenPrice;\n            tokenBalance[player2] += msg.value / tokenPrice;\n            owner.transfer(msg.value);\n            return(\"Player1 have purchased\",tokenBalance[player2]);\n        }\n\n        else{\n            return(\"Player not authorised so no purchase happen\", tokenBalance[msg.sender]);\n        }\n\n\n    }\n\n    function point(address _winner, address _looser) public onlyApproved() {\n\n        require(tokenBalance[_looser] >= 1, \"Not enough tokens\");\n        assert(tokenBalance[_winner] + 1 > tokenBalance[_winner]);\n        assert(tokenBalance[_looser] - 1 <= tokenBalance[_looser]);\n        tokenBalance[_looser] -= 1;\n        tokenBalance[_winner] += 1;\n    }\n\n    function levelUp(address _winner) public onlyApproved() {\n        require(tokenBalance[owner] > 10,\"Not enough token\");\n\n        tokenBalance[owner] -= 10;\n        tokenBalance[_winner] +=10;\n    }\n\n    function checkbalance() public view returns(uint){\n        return (address(this).balance);\n\n    }\n\n}",
  "sourcePath": "/home/lav/Documents/Backuop/BlockChain/Projects/Tokens_wallet/contracts/SharedTokenWallet.sol",
  "compiler": {
    "name": "solc",
    "version": "0.8.13+commit.abaa5c0e.Emscripten.clang"
  },
  "schemaVersion": "3.4.7",
  "updatedAt": "2022-05-04T14:53:13.263Z",
  "networkType": "ethereum",
  "devdoc": {
    "kind": "dev",
    "methods": {},
    "version": 1
  },
  "userdoc": {
    "kind": "user",
    "methods": {},
    "version": 1
  }
}