{
  "contractName": "GameNew",
  "abi": [
    {
      "inputs": [],
      "stateMutability": "payable",
      "type": "constructor",
      "payable": true
    },
    {
      "anonymous": false,
      "inputs": [
        {
          "indexed": false,
          "internalType": "enum GameNew.GameState",
          "name": "_state",
          "type": "uint8"
        }
      ],
      "name": "GamePaused",
      "type": "event"
    },
    {
      "anonymous": false,
      "inputs": [
        {
          "indexed": false,
          "internalType": "enum GameNew.GameState",
          "name": "_state",
          "type": "uint8"
        }
      ],
      "name": "GameStarted",
      "type": "event"
    },
    {
      "anonymous": false,
      "inputs": [
        {
          "indexed": false,
          "internalType": "enum GameNew.GameState",
          "name": "_state",
          "type": "uint8"
        }
      ],
      "name": "GameStopped",
      "type": "event"
    },
    {
      "anonymous": false,
      "inputs": [
        {
          "indexed": false,
          "internalType": "uint256",
          "name": "_index",
          "type": "uint256"
        },
        {
          "indexed": false,
          "internalType": "address",
          "name": "_player",
          "type": "address"
        }
      ],
      "name": "PlayerJoined",
      "type": "event"
    },
    {
      "anonymous": false,
      "inputs": [
        {
          "indexed": false,
          "internalType": "bool",
          "name": "_sent",
          "type": "bool"
        }
      ],
      "name": "TransferComplete",
      "type": "event"
    },
    {
      "stateMutability": "payable",
      "type": "fallback",
      "payable": true
    },
    {
      "inputs": [],
      "name": "_state",
      "outputs": [
        {
          "internalType": "enum GameNew.GameState",
          "name": "",
          "type": "uint8"
        }
      ],
      "stateMutability": "view",
      "type": "function",
      "constant": true
    },
    {
      "inputs": [
        {
          "internalType": "address",
          "name": "",
          "type": "address"
        }
      ],
      "name": "approvers",
      "outputs": [
        {
          "internalType": "bool",
          "name": "",
          "type": "bool"
        }
      ],
      "stateMutability": "view",
      "type": "function",
      "constant": true
    },
    {
      "inputs": [],
      "name": "contract_address",
      "outputs": [
        {
          "internalType": "address",
          "name": "",
          "type": "address"
        }
      ],
      "stateMutability": "view",
      "type": "function",
      "constant": true
    },
    {
      "inputs": [],
      "name": "owner",
      "outputs": [
        {
          "internalType": "address payable",
          "name": "",
          "type": "address"
        }
      ],
      "stateMutability": "view",
      "type": "function",
      "constant": true
    },
    {
      "inputs": [
        {
          "internalType": "uint256",
          "name": "",
          "type": "uint256"
        }
      ],
      "name": "players",
      "outputs": [
        {
          "internalType": "contract PlayerNew",
          "name": "_player",
          "type": "address"
        }
      ],
      "stateMutability": "view",
      "type": "function",
      "constant": true
    },
    {
      "inputs": [],
      "name": "startGame",
      "outputs": [],
      "stateMutability": "nonpayable",
      "type": "function"
    },
    {
      "inputs": [],
      "name": "pauseGame",
      "outputs": [],
      "stateMutability": "nonpayable",
      "type": "function"
    },
    {
      "inputs": [],
      "name": "stopGame",
      "outputs": [],
      "stateMutability": "nonpayable",
      "type": "function"
    },
    {
      "inputs": [
        {
          "internalType": "address payable",
          "name": "player_",
          "type": "address"
        }
      ],
      "name": "setPlayerAccount",
      "outputs": [],
      "stateMutability": "nonpayable",
      "type": "function"
    },
    {
      "inputs": [
        {
          "internalType": "address",
          "name": "_player",
          "type": "address"
        }
      ],
      "name": "CheckBalance",
      "outputs": [
        {
          "internalType": "uint256",
          "name": "",
          "type": "uint256"
        }
      ],
      "stateMutability": "view",
      "type": "function",
      "constant": true
    },
    {
      "inputs": [
        {
          "internalType": "uint256",
          "name": "_playerIndex",
          "type": "uint256"
        }
      ],
      "name": "hurdlePassed",
      "outputs": [
        {
          "internalType": "uint256",
          "name": "",
          "type": "uint256"
        }
      ],
      "stateMutability": "nonpayable",
      "type": "function"
    },
    {
      "inputs": [
        {
          "internalType": "uint256",
          "name": "_playerIndex",
          "type": "uint256"
        }
      ],
      "name": "levelUp",
      "outputs": [
        {
          "internalType": "uint256",
          "name": "",
          "type": "uint256"
        }
      ],
      "stateMutability": "nonpayable",
      "type": "function"
    },
    {
      "inputs": [
        {
          "internalType": "uint256",
          "name": "_playerIndex",
          "type": "uint256"
        }
      ],
      "name": "withdrawAllAmount",
      "outputs": [],
      "stateMutability": "nonpayable",
      "type": "function"
    },
    {
      "inputs": [
        {
          "internalType": "uint256",
          "name": "_playerIndex",
          "type": "uint256"
        }
      ],
      "name": "hurdleFail",
      "outputs": [],
      "stateMutability": "payable",
      "type": "function",
      "payable": true
    }
  ],
  "bytecode": "0x60806040526001600355620186a0600455624c4b4060055533600660026101000a81548173ffffffffffffffffffffffffffffffffffffffff021916908373ffffffffffffffffffffffffffffffffffffffff16021790555030600760006101000a81548173ffffffffffffffffffffffffffffffffffffffff021916908373ffffffffffffffffffffffffffffffffffffffff1602179055503073ffffffffffffffffffffffffffffffffffffffff1634604051620000bf906200015d565b60006040518083038185875af1925050503d8060008114620000fe576040519150601f19603f3d011682016040523d82523d6000602084013e62000103565b606091505b5050600660018291906101000a81548160ff0219169083151502179055505062000174565b600081905092915050565b50565b60006200014560008362000128565b9150620001528262000133565b600082019050919050565b60006200016a8262000136565b9150819050919050565b61217e80620001846000396000f3fe608060405260043610620000f75760003560e01c806390274c61116200008b578063a78606561162000061578063a786065614620002e6578063d65ab5f2146200032a578063ecb8c41a1462000344578063f71d96cb146200036457620000f8565b806390274c611462000258578063966b35141462000286578063a1cb31b714620002b657620000f8565b8063499831f211620000cd578063499831f214620001c65780637fa3fead14620001e057806383bd72ba146200020e5780638da5cb5b146200022857620000f8565b80630a14439114620000fa5780630ce90ec2146200013e5780632e4d59c4146200018257620000f8565b5b005b3480156200010757600080fd5b50620001266004803603810190620001209190620014e5565b620003a8565b60405162000135919062001534565b60405180910390f35b3480156200014b57600080fd5b506200016a60048036038101906200016491906200158c565b620003c8565b604051620001799190620015cf565b60405180910390f35b3480156200018f57600080fd5b50620001ae6004803603810190620001a89190620014e5565b62000646565b604051620001bd9190620015cf565b60405180910390f35b348015620001d357600080fd5b50620001de62000708565b005b348015620001ed57600080fd5b506200020c600480360381019062000206919062001631565b62000820565b005b3480156200021b57600080fd5b506200022662000a2e565b005b3480156200023557600080fd5b506200024062000bda565b6040516200024f919062001674565b60405180910390f35b3480156200026557600080fd5b506200028460048036038101906200027e91906200158c565b62000c00565b005b3480156200029357600080fd5b506200029e62000dba565b604051620002ad9190620016a2565b60405180910390f35b348015620002c357600080fd5b50620002ce62000de0565b604051620002dd91906200173f565b60405180910390f35b348015620002f357600080fd5b506200031260048036038101906200030c91906200158c565b62000df3565b604051620003219190620015cf565b60405180910390f35b3480156200033757600080fd5b506200034262001071565b005b6200036260048036038101906200035c91906200158c565b6200121d565b005b3480156200037157600080fd5b506200039060048036038101906200038a91906200158c565b620013d7565b6040516200039f9190620017c7565b60405180910390f35b60016020528060005260406000206000915054906101000a900460ff1681565b6000620003d462001415565b80620004295750600160003373ffffffffffffffffffffffffffffffffffffffff1673ffffffffffffffffffffffffffffffffffffffff16815260200190815260200160002060009054906101000a900460ff165b6200046b576040517f08c379a0000000000000000000000000000000000000000000000000000000008152600401620004629062001845565b60405180910390fd5b60006002811115620004825762000481620016bf565b5b600260009054906101000a900460ff166002811115620004a757620004a6620016bf565b5b14620004ea576040517f08c379a0000000000000000000000000000000000000000000000000000000008152600401620004e190620018b7565b60405180910390fd5b60008083815260200190815260200160002060000160009054906101000a900473ffffffffffffffffffffffffffffffffffffffff1673ffffffffffffffffffffffffffffffffffffffff1660055460405162000547906200190e565b60006040518083038185875af1925050503d806000811462000586576040519150601f19603f3d011682016040523d82523d6000602084013e6200058b565b606091505b5050600660008291906101000a81548160ff021916908315150217905550507ffaed9659f055f0c48de834762999cb3fb1d42483c501531c35d1b4b187d58ed4600660009054906101000a900460ff16604051620005ea919062001534565b60405180910390a160008083815260200190815260200160002060000160009054906101000a900473ffffffffffffffffffffffffffffffffffffffff1673ffffffffffffffffffffffffffffffffffffffff16319050919050565b60006200065262001415565b80620006a75750600160003373ffffffffffffffffffffffffffffffffffffffff1673ffffffffffffffffffffffffffffffffffffffff16815260200190815260200160002060009054906101000a900460ff165b620006e9576040517f08c379a0000000000000000000000000000000000000000000000000000000008152600401620006e09062001845565b60405180910390fd5b8173ffffffffffffffffffffffffffffffffffffffff16319050919050565b6200071262001415565b80620007675750600160003373ffffffffffffffffffffffffffffffffffffffff1673ffffffffffffffffffffffffffffffffffffffff16815260200190815260200160002060009054906101000a900460ff165b620007a9576040517f08c379a0000000000000000000000000000000000000000000000000000000008152600401620007a09062001845565b60405180910390fd5b60028060006101000a81548160ff02191690836002811115620007d157620007d0620016bf565b5b02179055507f5013d0e79d403b77faab432c360d9b75a2b85f496c4d0a7e2337e67bdf324eeb600260009054906101000a900460ff166040516200081691906200173f565b60405180910390a1565b600280811115620008365762000835620016bf565b5b600260009054906101000a900460ff1660028111156200085b576200085a620016bf565b5b1480620008a15750600060028111156200087a5762000879620016bf565b5b600260009054906101000a900460ff1660028111156200089f576200089e620016bf565b5b145b620008e3576040517f08c379a0000000000000000000000000000000000000000000000000000000008152600401620008da90620018b7565b60405180910390fd5b60003082600354604051620008f8906200146d565b62000906939291906200194a565b604051809103906000f08015801562000923573d6000803e3d6000fd5b50905080600080600354815260200190815260200160002060000160006101000a81548173ffffffffffffffffffffffffffffffffffffffff021916908373ffffffffffffffffffffffffffffffffffffffff16021790555060018060008373ffffffffffffffffffffffffffffffffffffffff1673ffffffffffffffffffffffffffffffffffffffff16815260200190815260200160002060006101000a81548160ff0219169083151502179055507f87969bc7faf902221a147b95ceba76e011c5efb0339a0a8ee7a2bb82d9cfbbd66003548260405162000a0892919062001987565b60405180910390a16003600081548092919062000a2590620019e3565b91905055505050565b62000a3862001415565b8062000a8d5750600160003373ffffffffffffffffffffffffffffffffffffffff1673ffffffffffffffffffffffffffffffffffffffff16815260200190815260200160002060009054906101000a900460ff165b62000acf576040517f08c379a000000000000000000000000000000000000000000000000000000000815260040162000ac69062001845565b60405180910390fd5b600660029054906101000a900473ffffffffffffffffffffffffffffffffffffffff1673ffffffffffffffffffffffffffffffffffffffff163373ffffffffffffffffffffffffffffffffffffffff161462000b62576040517f08c379a000000000000000000000000000000000000000000000000000000000815260040162000b599062001a80565b60405180910390fd5b6001600260006101000a81548160ff0219169083600281111562000b8b5762000b8a620016bf565b5b02179055507f4281d167e47a3bf27a9d862324c2b08e32e178dc8289e1a5864af43d322bc5f2600260009054906101000a900460ff1660405162000bd091906200173f565b60405180910390a1565b600660029054906101000a900473ffffffffffffffffffffffffffffffffffffffff1681565b62000c0a62001415565b8062000c5f5750600160003373ffffffffffffffffffffffffffffffffffffffff1673ffffffffffffffffffffffffffffffffffffffff16815260200190815260200160002060009054906101000a900460ff165b62000ca1576040517f08c379a000000000000000000000000000000000000000000000000000000000815260040162000c989062001845565b60405180910390fd5b6001600281111562000cb85762000cb7620016bf565b5b600260009054906101000a900460ff16600281111562000cdd5762000cdc620016bf565b5b1462000d20576040517f08c379a000000000000000000000000000000000000000000000000000000000815260040162000d179062001b18565b60405180910390fd5b60008082815260200190815260200160002060000160009054906101000a900473ffffffffffffffffffffffffffffffffffffffff1673ffffffffffffffffffffffffffffffffffffffff1663c5f1fd6e6040518163ffffffff1660e01b8152600401600060405180830381600087803b15801562000d9e57600080fd5b505af115801562000db3573d6000803e3d6000fd5b5050505050565b600760009054906101000a900473ffffffffffffffffffffffffffffffffffffffff1681565b600260009054906101000a900460ff1681565b600062000dff62001415565b8062000e545750600160003373ffffffffffffffffffffffffffffffffffffffff1673ffffffffffffffffffffffffffffffffffffffff16815260200190815260200160002060009054906101000a900460ff165b62000e96576040517f08c379a000000000000000000000000000000000000000000000000000000000815260040162000e8d9062001845565b60405180910390fd5b6000600281111562000ead5762000eac620016bf565b5b600260009054906101000a900460ff16600281111562000ed25762000ed1620016bf565b5b1462000f15576040517f08c379a000000000000000000000000000000000000000000000000000000000815260040162000f0c90620018b7565b60405180910390fd5b60008083815260200190815260200160002060000160009054906101000a900473ffffffffffffffffffffffffffffffffffffffff1673ffffffffffffffffffffffffffffffffffffffff1660045460405162000f72906200190e565b60006040518083038185875af1925050503d806000811462000fb1576040519150601f19603f3d011682016040523d82523d6000602084013e62000fb6565b606091505b5050600660008291906101000a81548160ff021916908315150217905550507ffaed9659f055f0c48de834762999cb3fb1d42483c501531c35d1b4b187d58ed4600660009054906101000a900460ff1660405162001015919062001534565b60405180910390a160008083815260200190815260200160002060000160009054906101000a900473ffffffffffffffffffffffffffffffffffffffff1673ffffffffffffffffffffffffffffffffffffffff16319050919050565b6200107b62001415565b80620010d05750600160003373ffffffffffffffffffffffffffffffffffffffff1673ffffffffffffffffffffffffffffffffffffffff16815260200190815260200160002060009054906101000a900460ff165b62001112576040517f08c379a0000000000000000000000000000000000000000000000000000000008152600401620011099062001845565b60405180910390fd5b600660029054906101000a900473ffffffffffffffffffffffffffffffffffffffff1673ffffffffffffffffffffffffffffffffffffffff163373ffffffffffffffffffffffffffffffffffffffff1614620011a5576040517f08c379a00000000000000000000000000000000000000000000000000000000081526004016200119c9062001a80565b60405180910390fd5b6000600260006101000a81548160ff02191690836002811115620011ce57620011cd620016bf565b5b02179055507f13cb55fc1bec4b9f4cd4c22f154240b469cb108a23a35aa599df0c3da46f2d14600260009054906101000a900460ff166040516200121391906200173f565b60405180910390a1565b6200122762001415565b806200127c5750600160003373ffffffffffffffffffffffffffffffffffffffff1673ffffffffffffffffffffffffffffffffffffffff16815260200190815260200160002060009054906101000a900460ff165b620012be576040517f08c379a0000000000000000000000000000000000000000000000000000000008152600401620012b59062001845565b60405180910390fd5b60006002811115620012d557620012d4620016bf565b5b600260009054906101000a900460ff166002811115620012fa57620012f9620016bf565b5b146200133d576040517f08c379a00000000000000000000000000000000000000000000000000000000081526004016200133490620018b7565b60405180910390fd5b60008082815260200190815260200160002060000160009054906101000a900473ffffffffffffffffffffffffffffffffffffffff1673ffffffffffffffffffffffffffffffffffffffff16634e1999ce6040518163ffffffff1660e01b8152600401600060405180830381600087803b158015620013bb57600080fd5b505af1158015620013d0573d6000803e3d6000fd5b5050505050565b60006020528060005260406000206000915090508060000160009054906101000a900473ffffffffffffffffffffffffffffffffffffffff16905081565b6000600660029054906101000a900473ffffffffffffffffffffffffffffffffffffffff1673ffffffffffffffffffffffffffffffffffffffff163373ffffffffffffffffffffffffffffffffffffffff1614905090565b61060e8062001b3b83390190565b600080fd5b600073ffffffffffffffffffffffffffffffffffffffff82169050919050565b6000620014ad8262001480565b9050919050565b620014bf81620014a0565b8114620014cb57600080fd5b50565b600081359050620014df81620014b4565b92915050565b600060208284031215620014fe57620014fd6200147b565b5b60006200150e84828501620014ce565b91505092915050565b60008115159050919050565b6200152e8162001517565b82525050565b60006020820190506200154b600083018462001523565b92915050565b6000819050919050565b620015668162001551565b81146200157257600080fd5b50565b60008135905062001586816200155b565b92915050565b600060208284031215620015a557620015a46200147b565b5b6000620015b58482850162001575565b91505092915050565b620015c98162001551565b82525050565b6000602082019050620015e66000830184620015be565b92915050565b6000620015f98262001480565b9050919050565b6200160b81620015ec565b81146200161757600080fd5b50565b6000813590506200162b8162001600565b92915050565b6000602082840312156200164a57620016496200147b565b5b60006200165a848285016200161a565b91505092915050565b6200166e81620015ec565b82525050565b60006020820190506200168b600083018462001663565b92915050565b6200169c81620014a0565b82525050565b6000602082019050620016b9600083018462001691565b92915050565b7f4e487b7100000000000000000000000000000000000000000000000000000000600052602160045260246000fd5b60038110620017025762001701620016bf565b5b50565b60008190506200171582620016ee565b919050565b6000620017278262001705565b9050919050565b62001739816200171a565b82525050565b60006020820190506200175660008301846200172e565b92915050565b6000819050919050565b600062001787620017816200177b8462001480565b6200175c565b62001480565b9050919050565b60006200179b8262001766565b9050919050565b6000620017af826200178e565b9050919050565b620017c181620017a2565b82525050565b6000602082019050620017de6000830184620017b6565b92915050565b600082825260208201905092915050565b7f596f7520617265206e6f7420617574686f72697a656400000000000000000000600082015250565b60006200182d601683620017e4565b91506200183a82620017f5565b602082019050919050565b6000602082019050818103600083015262001860816200181e565b9050919050565b7f47616d65206973206e6f7420696e2072756e6e696e6720636f6e646974696f6e600082015250565b60006200189f602083620017e4565b9150620018ac8262001867565b602082019050919050565b60006020820190508181036000830152620018d28162001890565b9050919050565b600081905092915050565b50565b6000620018f6600083620018d9565b91506200190382620018e4565b600082019050919050565b60006200191b82620018e7565b9150819050919050565b600062001932826200178e565b9050919050565b620019448162001925565b82525050565b600060608201905062001961600083018662001939565b62001970602083018562001663565b6200197f6040830184620015be565b949350505050565b60006040820190506200199e6000830185620015be565b620019ad602083018462001691565b9392505050565b7f4e487b7100000000000000000000000000000000000000000000000000000000600052601160045260246000fd5b6000620019f08262001551565b91507fffffffffffffffffffffffffffffffffffffffffffffffffffffffffffffffff820362001a255762001a24620019b4565b5b600182019050919050565b7f596f7520617265206e6f7420616c6c6f77656400000000000000000000000000600082015250565b600062001a68601383620017e4565b915062001a758262001a30565b602082019050919050565b6000602082019050818103600083015262001a9b8162001a59565b9050919050565b7f47616d652069732072756e6e696e672c20506c6561736520547279206166746560008201527f722067616d652073746f70706564000000000000000000000000000000000000602082015250565b600062001b00602e83620017e4565b915062001b0d8262001aa2565b604082019050919050565b6000602082019050818103600083015262001b338162001af1565b905091905056fe608060405261c35060035534801561001657600080fd5b5060405161060e38038061060e8339818101604052810190610038919061019f565b816000806101000a81548173ffffffffffffffffffffffffffffffffffffffff021916908373ffffffffffffffffffffffffffffffffffffffff1602179055508060018190555082600460006101000a81548173ffffffffffffffffffffffffffffffffffffffff021916908373ffffffffffffffffffffffffffffffffffffffff1602179055505050506101f2565b600080fd5b600073ffffffffffffffffffffffffffffffffffffffff82169050919050565b60006100f8826100cd565b9050919050565b600061010a826100ed565b9050919050565b61011a816100ff565b811461012557600080fd5b50565b60008151905061013781610111565b92915050565b610146816100ed565b811461015157600080fd5b50565b6000815190506101638161013d565b92915050565b6000819050919050565b61017c81610169565b811461018757600080fd5b50565b60008151905061019981610173565b92915050565b6000806000606084860312156101b8576101b76100c8565b5b60006101c686828701610128565b93505060206101d786828701610154565b92505060406101e88682870161018a565b9150509250925092565b61040d806102016000396000f3fe6080604052600436106100385760003560e01c806348db5f891461003b5780634e1999ce14610066578063c5f1fd6e1461007d57610039565b5b005b34801561004757600080fd5b50610050610087565b60405161005d919061029f565b60405180910390f35b34801561007257600080fd5b5061007b6100ab565b005b61008561019c565b005b60008054906101000a900473ffffffffffffffffffffffffffffffffffffffff1681565b600460009054906101000a900473ffffffffffffffffffffffffffffffffffffffff1673ffffffffffffffffffffffffffffffffffffffff166003546040516100f3906102eb565b60006040518083038185875af1925050503d8060008114610130576040519150601f19603f3d011682016040523d82523d6000602084013e610135565b606091505b5050600260008291906101000a81548160ff021916908315150217905550507fdc19b13e68b70d4a5d3b3cbe8174c2914ccb4e0c8b892d0d0b8e07ac7fb67d53600260009054906101000a900460ff16604051610192919061031b565b60405180910390a1565b7f85163a6063fc98844388b2b4f305abb09c288c9893f35b3f350eda3d9b33e24560008054906101000a900473ffffffffffffffffffffffffffffffffffffffff16476040516101ed9291906103ae565b60405180910390a160008054906101000a900473ffffffffffffffffffffffffffffffffffffffff1673ffffffffffffffffffffffffffffffffffffffff166108fc479081150290604051600060405180830381858888f1935050505015801561025b573d6000803e3d6000fd5b50565b600073ffffffffffffffffffffffffffffffffffffffff82169050919050565b60006102898261025e565b9050919050565b6102998161027e565b82525050565b60006020820190506102b46000830184610290565b92915050565b600081905092915050565b50565b60006102d56000836102ba565b91506102e0826102c5565b600082019050919050565b60006102f6826102c8565b9150819050919050565b60008115159050919050565b61031581610300565b82525050565b6000602082019050610330600083018461030c565b92915050565b6000819050919050565b600061035b6103566103518461025e565b610336565b61025e565b9050919050565b600061036d82610340565b9050919050565b600061037f82610362565b9050919050565b61038f81610374565b82525050565b6000819050919050565b6103a881610395565b82525050565b60006040820190506103c36000830185610386565b6103d0602083018461039f565b939250505056fea26469706673582212203b43484a9d92b54f49e95f4c4566669b7b880f43de0cfc678b37139bb72f435d64736f6c634300080d0033a26469706673582212206e4e4f9c277d557dd54f2f479b0ef34fa48559840931b5f3c085a8acd409044364736f6c634300080d0033",
  "immutableReferences": {},
  "source": "// SPDX-License-Identifier: GPL-3.0\n\npragma solidity 0.8.13;\n\nimport \"./PlayerNew.sol\";\n\n contract GameNew{\n\n     enum GameState{Start, Stop, Pause}\n     struct Player{\n         PlayerNew _player;\n        //  GameNew.GameState _state;\n     }\n\n     event PlayerJoined(uint _index,address _player);\n     event TransferComplete(bool _sent);\n     event GameStarted(GameState _state);\n     event GamePaused(GameState _state);\n     event GameStopped(GameState _state);\n\n     mapping(uint => Player) public players;\n     mapping(address => bool) public approvers;\n\n     GameState public _state;\n     uint playerIndex = 1;\n     uint hurdle_reward = 100000 wei;\n     uint levelup_reward = 5000000 wei;\n     bool sent;\n     bool sent1;\n     address payable public owner;\n     address public contract_address;\n\n     modifier onlyApproved() {\n        require(isOwner() || approvers[msg.sender],\"You are not authorized\");\n        _;\n    }\n\n    function isOwner() internal view returns (bool) {\n        return msg.sender == owner;\n    }\n\n\n\n    constructor() payable {\n        owner = payable(msg.sender);\n        contract_address = address(this);\n        (sent1, ) = address(this).call{value: msg.value}(\"\");\n\n    }\n\n    function startGame() onlyApproved() public {\n        require(msg.sender == owner, \"You are not allowed\");\n        _state = GameState.Start;\n        emit GameStarted(_state);\n    }\n\n     function pauseGame() onlyApproved() public {\n        _state = GameState.Pause;\n        emit GamePaused(_state);\n    }\n\n     function stopGame() onlyApproved() public {\n        require(msg.sender == owner, \"You are not allowed\");\n        _state = GameState.Stop;\n        emit GameStopped(_state);\n    }\n\n\n     function setPlayerAccount(address payable player_) public{\n        require(_state == GameState.Pause || _state == GameState.Start, \"Game is not in running condition\");\n        PlayerNew _player = new PlayerNew(this, player_, playerIndex );\n        players[playerIndex]._player = _player;\n        approvers[address(_player)] = true;\n        emit PlayerJoined(playerIndex, address(_player));\n        playerIndex++;\n     }\n\n     function CheckBalance(address _player) view public onlyApproved() returns(uint) {\n         return(_player.balance);\n     }\n\n    function hurdlePassed(uint _playerIndex) public onlyApproved() returns(uint) {\n        require(_state == GameState.Start, \"Game is not in running condition\");\n        (sent, ) = address(players[_playerIndex]._player).call{value: hurdle_reward}(\"\");\n        emit TransferComplete(sent);\n        return(address(players[_playerIndex]._player).balance);\n\n\n    }\n\n    function levelUp(uint _playerIndex) public onlyApproved() returns(uint) {\n        require(_state == GameState.Start, \"Game is not in running condition\");\n        (sent, ) = address(players[_playerIndex]._player).call{value: levelup_reward}(\"\");\n        emit TransferComplete(sent);\n        return(address(players[_playerIndex]._player).balance);\n\n\n    }\n\n    function withdrawAllAmount(uint _playerIndex) public onlyApproved() {\n        require(_state == GameState.Stop, \"Game is running, Please Try after game stopped\");\n        (players[_playerIndex]._player).redeemAllBalance();\n    }\n\n    function hurdleFail(uint _playerIndex) payable public onlyApproved() {\n        require(_state == GameState.Start, \"Game is not in running condition\");\n        (players[_playerIndex]._player).hurdlePenality();\n    }\n\n    fallback() payable external{\n\n    }\n     \n}",
  "sourcePath": "/home/lav/Documents/Backuop/BlockChain/Projects/Game-New/contracts/GameNew.sol",
  "compiler": {
    "name": "solc",
    "version": "0.8.13+commit.abaa5c0e.Emscripten.clang"
  },
  "schemaVersion": "3.4.7",
  "updatedAt": "2022-06-01T12:05:56.087Z",
  "networkType": "ethereum",
  "devdoc": {
    "kind": "dev",
    "methods": {},
    "version": 1
  },
  "userdoc": {
    "kind": "user",
    "methods": {},
    "version": 1
  }
}