{
  "contractName": "PlayerNew",
  "abi": [
    {
      "inputs": [
        {
          "internalType": "contract GameNew",
          "name": "_parentcontract",
          "type": "address"
        },
        {
          "internalType": "address payable",
          "name": "_player",
          "type": "address"
        },
        {
          "internalType": "uint256",
          "name": "_index",
          "type": "uint256"
        }
      ],
      "stateMutability": "nonpayable",
      "type": "constructor"
    },
    {
      "anonymous": false,
      "inputs": [
        {
          "indexed": false,
          "internalType": "address",
          "name": "_player",
          "type": "address"
        },
        {
          "indexed": false,
          "internalType": "uint256",
          "name": "_balance",
          "type": "uint256"
        }
      ],
      "name": "BalanceRedeemed",
      "type": "event"
    },
    {
      "anonymous": false,
      "inputs": [
        {
          "indexed": false,
          "internalType": "bool",
          "name": "_sent",
          "type": "bool"
        }
      ],
      "name": "Penality",
      "type": "event"
    },
    {
      "stateMutability": "payable",
      "type": "fallback",
      "payable": true
    },
    {
      "inputs": [],
      "name": "player",
      "outputs": [
        {
          "internalType": "address payable",
          "name": "",
          "type": "address"
        }
      ],
      "stateMutability": "view",
      "type": "function",
      "constant": true
    },
    {
      "inputs": [],
      "name": "redeemAllBalance",
      "outputs": [],
      "stateMutability": "payable",
      "type": "function",
      "payable": true
    },
    {
      "inputs": [],
      "name": "hurdlePenality",
      "outputs": [],
      "stateMutability": "nonpayable",
      "type": "function"
    }
  ],
  "bytecode": "0x608060405261c35060035534801561001657600080fd5b5060405161060e38038061060e8339818101604052810190610038919061019f565b816000806101000a81548173ffffffffffffffffffffffffffffffffffffffff021916908373ffffffffffffffffffffffffffffffffffffffff1602179055508060018190555082600460006101000a81548173ffffffffffffffffffffffffffffffffffffffff021916908373ffffffffffffffffffffffffffffffffffffffff1602179055505050506101f2565b600080fd5b600073ffffffffffffffffffffffffffffffffffffffff82169050919050565b60006100f8826100cd565b9050919050565b600061010a826100ed565b9050919050565b61011a816100ff565b811461012557600080fd5b50565b60008151905061013781610111565b92915050565b610146816100ed565b811461015157600080fd5b50565b6000815190506101638161013d565b92915050565b6000819050919050565b61017c81610169565b811461018757600080fd5b50565b60008151905061019981610173565b92915050565b6000806000606084860312156101b8576101b76100c8565b5b60006101c686828701610128565b93505060206101d786828701610154565b92505060406101e88682870161018a565b9150509250925092565b61040d806102016000396000f3fe6080604052600436106100385760003560e01c806348db5f891461003b5780634e1999ce14610066578063c5f1fd6e1461007d57610039565b5b005b34801561004757600080fd5b50610050610087565b60405161005d919061029f565b60405180910390f35b34801561007257600080fd5b5061007b6100ab565b005b61008561019c565b005b60008054906101000a900473ffffffffffffffffffffffffffffffffffffffff1681565b600460009054906101000a900473ffffffffffffffffffffffffffffffffffffffff1673ffffffffffffffffffffffffffffffffffffffff166003546040516100f3906102eb565b60006040518083038185875af1925050503d8060008114610130576040519150601f19603f3d011682016040523d82523d6000602084013e610135565b606091505b5050600260008291906101000a81548160ff021916908315150217905550507fdc19b13e68b70d4a5d3b3cbe8174c2914ccb4e0c8b892d0d0b8e07ac7fb67d53600260009054906101000a900460ff16604051610192919061031b565b60405180910390a1565b7f85163a6063fc98844388b2b4f305abb09c288c9893f35b3f350eda3d9b33e24560008054906101000a900473ffffffffffffffffffffffffffffffffffffffff16476040516101ed9291906103ae565b60405180910390a160008054906101000a900473ffffffffffffffffffffffffffffffffffffffff1673ffffffffffffffffffffffffffffffffffffffff166108fc479081150290604051600060405180830381858888f1935050505015801561025b573d6000803e3d6000fd5b50565b600073ffffffffffffffffffffffffffffffffffffffff82169050919050565b60006102898261025e565b9050919050565b6102998161027e565b82525050565b60006020820190506102b46000830184610290565b92915050565b600081905092915050565b50565b60006102d56000836102ba565b91506102e0826102c5565b600082019050919050565b60006102f6826102c8565b9150819050919050565b60008115159050919050565b61031581610300565b82525050565b6000602082019050610330600083018461030c565b92915050565b6000819050919050565b600061035b6103566103518461025e565b610336565b61025e565b9050919050565b600061036d82610340565b9050919050565b600061037f82610362565b9050919050565b61038f81610374565b82525050565b6000819050919050565b6103a881610395565b82525050565b60006040820190506103c36000830185610386565b6103d0602083018461039f565b939250505056fea26469706673582212203b43484a9d92b54f49e95f4c4566669b7b880f43de0cfc678b37139bb72f435d64736f6c634300080d0033",
  "immutableReferences": {},
  "source": "// SPDX-License-Identifier: GPL-3.0\n\npragma solidity 0.8.13;\n\nimport \"./GameNew.sol\";\n\ncontract PlayerNew {\n\n    address payable public player;\n    // uint public bal;\n    uint index;\n    bool sent;\n    uint hurdle_penality = 50000 wei;\n\n    event Penality(bool _sent);\n\n    GameNew parentcontract;\n\n    event BalanceRedeemed(address _player, uint _balance);\n\n    constructor(GameNew _parentcontract, address payable _player, uint _index) {\n        player = _player;\n        index = _index;\n        parentcontract = _parentcontract;\n    }\n\n     function redeemAllBalance() payable public {\n       \n        emit BalanceRedeemed(player,address(this).balance);\n        player.transfer(address(this).balance);\n        }\n\n        function hurdlePenality() public { \n             (sent, ) = address(parentcontract).call{value: hurdle_penality}(\"\");\n             emit Penality(sent);\n             \n        }\n\n        \n\n    fallback() external payable {\n        \n    }\n\n}",
  "sourcePath": "/home/lav/Documents/Backuop/BlockChain/Projects/Game-New/contracts/PlayerNew.sol",
  "compiler": {
    "name": "solc",
    "version": "0.8.13+commit.abaa5c0e.Emscripten.clang"
  },
  "schemaVersion": "3.4.7",
  "updatedAt": "2022-06-01T12:21:03.162Z",
  "networkType": "ethereum",
  "devdoc": {
    "kind": "dev",
    "methods": {},
    "version": 1
  },
  "userdoc": {
    "kind": "user",
    "methods": {},
    "version": 1
  }
}