{
  "contractName": "SharedTokenWallet",
  "abi": [
    {
      "inputs": [],
      "stateMutability": "nonpayable",
      "type": "constructor"
    },
    {
      "anonymous": false,
      "inputs": [],
      "name": "Player1Ready",
      "type": "event"
    },
    {
      "anonymous": false,
      "inputs": [],
      "name": "Player2Ready",
      "type": "event"
    },
    {
      "anonymous": false,
      "inputs": [
        {
          "indexed": false,
          "internalType": "uint256",
          "name": "_balance",
          "type": "uint256"
        }
      ],
      "name": "TokenPurchased",
      "type": "event"
    },
    {
      "inputs": [
        {
          "internalType": "address",
          "name": "",
          "type": "address"
        }
      ],
      "name": "approvers",
      "outputs": [
        {
          "internalType": "bool",
          "name": "",
          "type": "bool"
        }
      ],
      "stateMutability": "view",
      "type": "function"
    },
    {
      "inputs": [],
      "name": "owner",
      "outputs": [
        {
          "internalType": "address payable",
          "name": "",
          "type": "address"
        }
      ],
      "stateMutability": "view",
      "type": "function"
    },
    {
      "inputs": [],
      "name": "player1",
      "outputs": [
        {
          "internalType": "address",
          "name": "",
          "type": "address"
        }
      ],
      "stateMutability": "view",
      "type": "function"
    },
    {
      "inputs": [],
      "name": "player2",
      "outputs": [
        {
          "internalType": "address",
          "name": "",
          "type": "address"
        }
      ],
      "stateMutability": "view",
      "type": "function"
    },
    {
      "inputs": [
        {
          "internalType": "address",
          "name": "",
          "type": "address"
        }
      ],
      "name": "tokenBalance",
      "outputs": [
        {
          "internalType": "uint256",
          "name": "",
          "type": "uint256"
        }
      ],
      "stateMutability": "view",
      "type": "function"
    },
    {
      "inputs": [],
      "name": "setPlayerAccount1",
      "outputs": [],
      "stateMutability": "nonpayable",
      "type": "function"
    },
    {
      "inputs": [],
      "name": "setPlayerAccount2",
      "outputs": [],
      "stateMutability": "nonpayable",
      "type": "function"
    },
    {
      "inputs": [],
      "name": "purchaseToken",
      "outputs": [],
      "stateMutability": "payable",
      "type": "function"
    },
    {
      "inputs": [
        {
          "internalType": "address",
          "name": "_winner",
          "type": "address"
        },
        {
          "internalType": "address",
          "name": "_looser",
          "type": "address"
        }
      ],
      "name": "point",
      "outputs": [],
      "stateMutability": "nonpayable",
      "type": "function"
    },
    {
      "inputs": [
        {
          "internalType": "address",
          "name": "_winner",
          "type": "address"
        }
      ],
      "name": "levelUp",
      "outputs": [],
      "stateMutability": "nonpayable",
      "type": "function"
    },
    {
      "inputs": [],
      "name": "checkbalance",
      "outputs": [
        {
          "internalType": "uint256",
          "name": "",
          "type": "uint256"
        }
      ],
      "stateMutability": "view",
      "type": "function"
    }
  ],
  "bytecode": "0x6080604052620186a060025534801561001757600080fd5b5033600360006101000a81548173ffffffffffffffffffffffffffffffffffffffff021916908373ffffffffffffffffffffffffffffffffffffffff1602179055506103e8600080600360009054906101000a900473ffffffffffffffffffffffffffffffffffffffff1673ffffffffffffffffffffffffffffffffffffffff1673ffffffffffffffffffffffffffffffffffffffff16815260200190815260200160002081905550611734806100cf6000396000f3fe60806040526004361061009c5760003560e01c8063a95c4d6211610064578063a95c4d6214610174578063d30895e41461017e578063da3bb61a146101a9578063e18b551c146101c0578063eaa9600b146101e9578063eedc966a146102145761009c565b80630a144391146100a157806359a5f12d146100de5780636d82ddaa146101095780638da5cb5b1461013257806394cc98901461015d575b600080fd5b3480156100ad57600080fd5b506100c860048036038101906100c391906111f2565b610251565b6040516100d5919061123a565b60405180910390f35b3480156100ea57600080fd5b506100f3610271565b6040516101009190611264565b60405180910390f35b34801561011557600080fd5b50610130600480360381019061012b919061127f565b610297565b005b34801561013e57600080fd5b50610147610595565b60405161015491906112e0565b60405180910390f35b34801561016957600080fd5b506101726105bb565b005b61017c6106fa565b005b34801561018a57600080fd5b50610193610d13565b6040516101a09190611264565b60405180910390f35b3480156101b557600080fd5b506101be610d39565b005b3480156101cc57600080fd5b506101e760048036038101906101e291906111f2565b610f08565b005b3480156101f557600080fd5b506101fe611117565b60405161020b9190611314565b60405180910390f35b34801561022057600080fd5b5061023b600480360381019061023691906111f2565b61111f565b6040516102489190611314565b60405180910390f35b60016020528060005260406000206000915054906101000a900460ff1681565b600560009054906101000a900473ffffffffffffffffffffffffffffffffffffffff1681565b61029f611137565b806102f35750600160003373ffffffffffffffffffffffffffffffffffffffff1673ffffffffffffffffffffffffffffffffffffffff16815260200190815260200160002060009054906101000a900460ff165b610332576040517f08c379a00000000000000000000000000000000000000000000000000000000081526004016103299061138c565b60405180910390fd5b60016000808373ffffffffffffffffffffffffffffffffffffffff1673ffffffffffffffffffffffffffffffffffffffff1681526020019081526020016000205410156103b4576040517f08c379a00000000000000000000000000000000000000000000000000000000081526004016103ab906113f8565b60405180910390fd5b6000808373ffffffffffffffffffffffffffffffffffffffff1673ffffffffffffffffffffffffffffffffffffffff1681526020019081526020016000205460016000808573ffffffffffffffffffffffffffffffffffffffff1673ffffffffffffffffffffffffffffffffffffffff1681526020019081526020016000205461043e9190611447565b1161044c5761044b61149d565b5b6000808273ffffffffffffffffffffffffffffffffffffffff1673ffffffffffffffffffffffffffffffffffffffff1681526020019081526020016000205460016000808473ffffffffffffffffffffffffffffffffffffffff1673ffffffffffffffffffffffffffffffffffffffff168152602001908152602001600020546104d691906114cc565b11156104e5576104e461149d565b5b60016000808373ffffffffffffffffffffffffffffffffffffffff1673ffffffffffffffffffffffffffffffffffffffff168152602001908152602001600020600082825461053491906114cc565b9250508190555060016000808473ffffffffffffffffffffffffffffffffffffffff1673ffffffffffffffffffffffffffffffffffffffff168152602001908152602001600020600082825461058a9190611447565b925050819055505050565b600360009054906101000a900473ffffffffffffffffffffffffffffffffffffffff1681565b600073ffffffffffffffffffffffffffffffffffffffff16600460009054906101000a900473ffffffffffffffffffffffffffffffffffffffff1673ffffffffffffffffffffffffffffffffffffffff16036106f85733600460006101000a81548173ffffffffffffffffffffffffffffffffffffffff021916908373ffffffffffffffffffffffffffffffffffffffff1602179055506001806000600460009054906101000a900473ffffffffffffffffffffffffffffffffffffffff1673ffffffffffffffffffffffffffffffffffffffff1673ffffffffffffffffffffffffffffffffffffffff16815260200190815260200160002060006101000a81548160ff0219169083151502179055507f8c846458ffb73747e7e5565fd2ad5365e0d75cc96f5bbe4fc62806dd20eae95560405160405180910390a15b565b610702611137565b806107565750600160003373ffffffffffffffffffffffffffffffffffffffff1673ffffffffffffffffffffffffffffffffffffffff16815260200190815260200160002060009054906101000a900460ff165b610795576040517f08c379a000000000000000000000000000000000000000000000000000000000815260040161078c9061138c565b60405180910390fd5b600034600254600080600360009054906101000a900473ffffffffffffffffffffffffffffffffffffffff1673ffffffffffffffffffffffffffffffffffffffff1673ffffffffffffffffffffffffffffffffffffffff168152602001908152602001600020546108069190611500565b6108109190611589565b11610850576040517f08c379a000000000000000000000000000000000000000000000000000000000815260040161084790611606565b60405180910390fd5b600460009054906101000a900473ffffffffffffffffffffffffffffffffffffffff1673ffffffffffffffffffffffffffffffffffffffff163373ffffffffffffffffffffffffffffffffffffffff1603610ab257600254346108b39190611589565b600080600360009054906101000a900473ffffffffffffffffffffffffffffffffffffffff1673ffffffffffffffffffffffffffffffffffffffff1673ffffffffffffffffffffffffffffffffffffffff168152602001908152602001600020600082825461092291906114cc565b92505081905550600254346109379190611589565b600080600460009054906101000a900473ffffffffffffffffffffffffffffffffffffffff1673ffffffffffffffffffffffffffffffffffffffff1673ffffffffffffffffffffffffffffffffffffffff16815260200190815260200160002060008282546109a69190611447565b92505081905550600360009054906101000a900473ffffffffffffffffffffffffffffffffffffffff1673ffffffffffffffffffffffffffffffffffffffff166108fc349081150290604051600060405180830381858888f19350505050158015610a15573d6000803e3d6000fd5b507fcab6f8fa2c780e69c142674d8c8238d5acfde69d0f05fbddc5c796eca4229b6d600080600460009054906101000a900473ffffffffffffffffffffffffffffffffffffffff1673ffffffffffffffffffffffffffffffffffffffff1673ffffffffffffffffffffffffffffffffffffffff16815260200190815260200160002054604051610aa59190611314565b60405180910390a1610d11565b600560009054906101000a900473ffffffffffffffffffffffffffffffffffffffff1673ffffffffffffffffffffffffffffffffffffffff163373ffffffffffffffffffffffffffffffffffffffff1603610d105760025434610b159190611589565b600080600360009054906101000a900473ffffffffffffffffffffffffffffffffffffffff1673ffffffffffffffffffffffffffffffffffffffff1673ffffffffffffffffffffffffffffffffffffffff1681526020019081526020016000206000828254610b8491906114cc565b9250508190555060025434610b999190611589565b600080600560009054906101000a900473ffffffffffffffffffffffffffffffffffffffff1673ffffffffffffffffffffffffffffffffffffffff1673ffffffffffffffffffffffffffffffffffffffff1681526020019081526020016000206000828254610c089190611447565b92505081905550600360009054906101000a900473ffffffffffffffffffffffffffffffffffffffff1673ffffffffffffffffffffffffffffffffffffffff166108fc349081150290604051600060405180830381858888f19350505050158015610c77573d6000803e3d6000fd5b507fcab6f8fa2c780e69c142674d8c8238d5acfde69d0f05fbddc5c796eca4229b6d600080600460009054906101000a900473ffffffffffffffffffffffffffffffffffffffff1673ffffffffffffffffffffffffffffffffffffffff1673ffffffffffffffffffffffffffffffffffffffff16815260200190815260200160002054604051610d079190611314565b60405180910390a15b5b565b600460009054906101000a900473ffffffffffffffffffffffffffffffffffffffff1681565b600460009054906101000a900473ffffffffffffffffffffffffffffffffffffffff1673ffffffffffffffffffffffffffffffffffffffff163373ffffffffffffffffffffffffffffffffffffffff1603610dc9576040517f08c379a0000000000000000000000000000000000000000000000000000000008152600401610dc090611672565b60405180910390fd5b600073ffffffffffffffffffffffffffffffffffffffff16600560009054906101000a900473ffffffffffffffffffffffffffffffffffffffff1673ffffffffffffffffffffffffffffffffffffffff1603610f065733600560006101000a81548173ffffffffffffffffffffffffffffffffffffffff021916908373ffffffffffffffffffffffffffffffffffffffff1602179055506001806000600560009054906101000a900473ffffffffffffffffffffffffffffffffffffffff1673ffffffffffffffffffffffffffffffffffffffff1673ffffffffffffffffffffffffffffffffffffffff16815260200190815260200160002060006101000a81548160ff0219169083151502179055507f03b0a05a39add97159e16c3d2f9768c0f5d3b090c354a27e02921b646e66afdc60405160405180910390a15b565b610f10611137565b80610f645750600160003373ffffffffffffffffffffffffffffffffffffffff1673ffffffffffffffffffffffffffffffffffffffff16815260200190815260200160002060009054906101000a900460ff165b610fa3576040517f08c379a0000000000000000000000000000000000000000000000000000000008152600401610f9a9061138c565b60405180910390fd5b600a600080600360009054906101000a900473ffffffffffffffffffffffffffffffffffffffff1673ffffffffffffffffffffffffffffffffffffffff1673ffffffffffffffffffffffffffffffffffffffff1681526020019081526020016000205411611046576040517f08c379a000000000000000000000000000000000000000000000000000000000815260040161103d906116de565b60405180910390fd5b600a600080600360009054906101000a900473ffffffffffffffffffffffffffffffffffffffff1673ffffffffffffffffffffffffffffffffffffffff1673ffffffffffffffffffffffffffffffffffffffff16815260200190815260200160002060008282546110b791906114cc565b92505081905550600a6000808373ffffffffffffffffffffffffffffffffffffffff1673ffffffffffffffffffffffffffffffffffffffff168152602001908152602001600020600082825461110d9190611447565b9250508190555050565b600047905090565b60006020528060005260406000206000915090505481565b6000600360009054906101000a900473ffffffffffffffffffffffffffffffffffffffff1673ffffffffffffffffffffffffffffffffffffffff163373ffffffffffffffffffffffffffffffffffffffff1614905090565b600080fd5b600073ffffffffffffffffffffffffffffffffffffffff82169050919050565b60006111bf82611194565b9050919050565b6111cf816111b4565b81146111da57600080fd5b50565b6000813590506111ec816111c6565b92915050565b6000602082840312156112085761120761118f565b5b6000611216848285016111dd565b91505092915050565b60008115159050919050565b6112348161121f565b82525050565b600060208201905061124f600083018461122b565b92915050565b61125e816111b4565b82525050565b60006020820190506112796000830184611255565b92915050565b600080604083850312156112965761129561118f565b5b60006112a4858286016111dd565b92505060206112b5858286016111dd565b9150509250929050565b60006112ca82611194565b9050919050565b6112da816112bf565b82525050565b60006020820190506112f560008301846112d1565b92915050565b6000819050919050565b61130e816112fb565b82525050565b60006020820190506113296000830184611305565b92915050565b600082825260208201905092915050565b7f596f7520617265206e6f7420617574686f72697a656400000000000000000000600082015250565b600061137660168361132f565b915061138182611340565b602082019050919050565b600060208201905081810360008301526113a581611369565b9050919050565b7f4e6f7420656e6f75676820746f6b656e73000000000000000000000000000000600082015250565b60006113e260118361132f565b91506113ed826113ac565b602082019050919050565b60006020820190508181036000830152611411816113d5565b9050919050565b7f4e487b7100000000000000000000000000000000000000000000000000000000600052601160045260246000fd5b6000611452826112fb565b915061145d836112fb565b9250827fffffffffffffffffffffffffffffffffffffffffffffffffffffffffffffffff0382111561149257611491611418565b5b828201905092915050565b7f4e487b7100000000000000000000000000000000000000000000000000000000600052600160045260246000fd5b60006114d7826112fb565b91506114e2836112fb565b9250828210156114f5576114f4611418565b5b828203905092915050565b600061150b826112fb565b9150611516836112fb565b9250817fffffffffffffffffffffffffffffffffffffffffffffffffffffffffffffffff048311821515161561154f5761154e611418565b5b828202905092915050565b7f4e487b7100000000000000000000000000000000000000000000000000000000600052601260045260246000fd5b6000611594826112fb565b915061159f836112fb565b9250826115af576115ae61155a565b5b828204905092915050565b7f6e6f7420656e6f75676820746f6b656e73000000000000000000000000000000600082015250565b60006115f060118361132f565b91506115fb826115ba565b602082019050919050565b6000602082019050818103600083015261161f816115e3565b9050919050565b7f506c6179657220616c7265616479207265676973746572656400000000000000600082015250565b600061165c60198361132f565b915061166782611626565b602082019050919050565b6000602082019050818103600083015261168b8161164f565b9050919050565b7f4e6f7420656e6f75676820746f6b656e00000000000000000000000000000000600082015250565b60006116c860108361132f565b91506116d382611692565b602082019050919050565b600060208201905081810360008301526116f7816116bb565b905091905056fea26469706673582212205b3604fd21c399b4a587f67045207314c6e9b0102ab4c8d6194a0ff34c15904064736f6c634300080d0033",
  "immutableReferences": {},
  "source": "// SPDX-License-Identifier: GPL-3.0\n\npragma solidity 0.8.13;\n\ncontract SharedTokenWallet{\n\n    mapping(address => uint) public tokenBalance;\n    mapping(address => bool) public approvers;\n\n    uint tokenPrice = 100000 wei;\n\n    address payable public owner;\n    address public player1;\n    address public player2;\n\n    event Player1Ready();\n    event Player2Ready();\n    event TokenPurchased(uint _balance);\n    \n\n    constructor(){\n        owner = payable(msg.sender);\n        tokenBalance[owner] = 1000;\n\n    }\n\n    modifier onlyApproved() {\n        require(isOwner() || approvers[msg.sender],\"You are not authorized\");\n        _;\n    }\n\n    function isOwner() internal view returns (bool) {\n        return msg.sender == owner;\n    }\n    \n    function setPlayerAccount1() public {\n        if(player1 == address(0)  ){\n            player1 = msg.sender;\n            approvers[player1] = true;\n            emit Player1Ready();\n        }\n    //     else{\n    //         return(\"Player1 is already exist.\");\n    //     }\n    }\n    \n     function setPlayerAccount2() public {\n        require(msg.sender != player1,\"Player already registered\");\n        if(player2 == address(0) ){\n            player2 = msg.sender;\n            approvers[player2] = true;\n            emit Player2Ready();\n        }\n        // else{\n        //     return(\"Player2 is already exist.\");\n        // }\n    }\n\n    function purchaseToken() public payable onlyApproved()  {\n\n        // require(msg.sender == player1 || msg.sender == player2,\"You are not authorized player\" );\n        require((tokenBalance[owner] * tokenPrice) / msg.value > 0, \"not enough tokens\" );\n        if(msg.sender == player1){\n            tokenBalance[owner] -= msg.value / tokenPrice;\n            tokenBalance[player1] += msg.value / tokenPrice;\n            owner.transfer(msg.value);\n            emit TokenPurchased(tokenBalance[player1]);\n\n        }\n\n        else if(msg.sender == player2){\n            tokenBalance[owner] -= msg.value / tokenPrice;\n            tokenBalance[player2] += msg.value / tokenPrice;\n            owner.transfer(msg.value);\n            emit TokenPurchased(tokenBalance[player1]);\n\n        }\n\n        // else{\n        //     return(\"Player not authorised so no purchase happen\", tokenBalance[msg.sender]);\n        // }\n\n\n    }\n\n    function point(address _winner, address _looser) public onlyApproved() {\n\n        require(tokenBalance[_looser] >= 1, \"Not enough tokens\");\n        assert(tokenBalance[_winner] + 1 > tokenBalance[_winner]);\n        assert(tokenBalance[_looser] - 1 <= tokenBalance[_looser]);\n        tokenBalance[_looser] -= 1;\n        tokenBalance[_winner] += 1;\n    }\n\n    function levelUp(address _winner) public onlyApproved() {\n        require(tokenBalance[owner] > 10,\"Not enough token\");\n\n        tokenBalance[owner] -= 10;\n        tokenBalance[_winner] +=10;\n    }\n\n    function checkbalance() public view returns(uint){\n        return (address(this).balance);\n\n    }\n\n}",
  "sourcePath": "/home/lav/Documents/Backuop/BlockChain/Projects/simple_truffle_project/contracts/SharedTokenWallet.sol",
  "compiler": {
    "name": "solc",
    "version": "0.8.13+commit.abaa5c0e.Emscripten.clang"
  },
  "schemaVersion": "3.4.7",
  "updatedAt": "2022-05-10T12:00:12.806Z",
  "devdoc": {
    "kind": "dev",
    "methods": {},
    "version": 1
  },
  "userdoc": {
    "kind": "user",
    "methods": {},
    "version": 1
  }
}